:020000040800F2
:1000000078040020C5010008CD010008CF010008D8
:10001000D1010008D3010008D5010008000000004C
:10002000000000000000000000000000D7010008F0
:10003000D901000800000000DB010008DD01000814
:10004000DF010008DF010008DF010008DF01000810
:10005000DF010008DF010008DF010008DF01000800
:10006000DF010008DF010008DF010008DF010008F0
:10007000DF010008DF010008DF010008DF010008E0
:10008000DF010008DF010008DF010008DF010008D0
:10009000DF010008DF010008DF010008DF010008C0
:1000A000DF010008DF010008DF010008DF010008B0
:1000B000DF010008DF010008DF010008DF010008A0
:1000C000DF010008DF010008DF010008DF01000890
:1000D000DF010008DF010008DF010008DF01000880
:1000E000DF010008DF010008DF010008DF01000870
:1000F000DF010008DF010008DF010008DF01000860
:10010000DF010008DF010008DF010008DF0100084F
:10011000DF010008DF010008DF010008DF0100083F
:10012000DF010008DF010008DF010008DF0100082F
:10013000DF010008DF010008DF010008DF0100081F
:10014000DF010008DF010008DF010008DF0100080F
:10015000DF010008DF010008DF010008DF010008FF
:10016000DF010008DF010008DF010008DF010008EF
:10017000DF010008DF010008DF01000800000000C7
:10018000DF010008DF010008DF010008DF010008CF
:10019000DF010008DF010008DF01000800000000A7
:1001A000DF010008DF010008DF010008DFF810D0E0
:1001B00000F0B4F900480047BD1D0008AFF300800F
:1001C000780400200648804706480047FEE7FEE71F
:1001D000FEE7FEE7FEE7FEE7FEE7FEE7FEE7FEE7F7
:1001E00061050008AD01000840EA01039B0703D048
:1001F00009E008C9121F08C0042AFAD203E011F866
:10020000013B00F8013B521EF9D27047421C10F826
:10021000011B0029FBD1801A704730B5044600202D
:10022000034600E05B1C934203D2E05CCD5C401BC4
:10023000F8D030BD2DE9FE4F81EA030404F00044FC
:1002400021F0004100944FF0000B23F0004350EAEE
:1002500001045ED052EA03045BD0C3F30A54C1F335
:100260000A552C44A4F2F3340194A0FB0254C1F3C8
:10027000130141F48011C3F3130343F4801301FB12
:10028000024400FB034E840A970A44EA815447EA79
:100290008357A4FB076802958D0A05FB07854FEA83
:1002A000932C04FB0C542705029D4FEA065847EA9D
:1002B0001637B5EB08056EEB070C870E920E47EA72
:1002C000811742EA8312A7FB0201B6EB0B0164EB34
:1002D00000042B0D43EA0C335E1844EB1C50DA4645
:1002E0005146E7FB0201C5F313044FEA0B3343EA1F
:1002F00014534FEA0432019C43EA0603A4F10C04B0
:100300000294009CCDE900B400F0B9F803B0BDE858
:10031000F08F00200146F9E70EB5C10F80EAE070CA
:100320000844CA07002140F233438DE80E000A4614
:100330000B4600F0A4F803B000BD01F0004330B458
:1003400021F0004150EA010206D00A0DA2F56072C8
:10035000C1F31301002A02DC30BC00207047440FB7
:1003600044EAC104C100E01830BC00EBC25000F008
:1003700040B82DE9F05F0546002092469B4688462E
:100380000646814640241BE0284641464746224611
:1003900000F0D6F853465A46C01A914110D3114680
:1003A0001846224600F016F82D1A67EB01084F4652
:1003B00022460120002100F00DF817EB00094E4104
:1003C000201EA4F10104DFDC484631462A4643469C
:1003D000BDE8F09F202A04DB203A00FA02F1002059
:1003E00070479140C2F1200320FA03F31943904073
:1003F00070470029A8BF7047401C490008BF20F083
:100400000100704710B4B0FA80FC00FA0CF050EA1A
:10041000010404BF10BC704749B1CCF1200421FA9B
:1004200004F411FA0CF118BF012121430843A3EB96
:100430000C01CB1D4FEA00614FEA102042BF0020A3
:1004400010BC704700EBC35010440029A4BF10BC7F
:100450007047401C490008BF20F0010010BC7047E5
:1004600010B5141E73F1000408DA401C41F10001BC
:1004700092185B411A4301D120F0010010BD2DE913
:10048000F04D92469B4611B1B1FA81F202E0B0FA0A
:1004900080F220329046FFF79DFF04460F4640EA67
:1004A0000A0041EA0B0153465A46084313D011464D
:1004B00053EA010019D0C8F14002504600F040F85C
:1004C00005460E46504659464246FFF783FF08430D
:1004D00005D0012004E020463946BDE8F08D00201B
:1004E000054346EAE0762C4337430A986305E40A5D
:1004F000A0EB08000022FD0A44EA47540A3002D566
:1005000000200146E9E7010510196941DDE90845C8
:1005100000196941BDE8F04DA2E70000064C074D07
:1005200006E0E06840F0010394E8070098471034C3
:10053000AC42F6D3FFF73EFE802E0008A02E000846
:10054000202A04DB203A21FA02F00021704721FA28
:1005500002F3D040C2F1200291400843194670478F
:1005600008B53048006840F470002E4908602E48F5
:10057000006840F001002C49086000BF2A4800686C
:1005800000F002000028F9D000BF274808300068BA
:1005900040F080002449083108600020009002E00B
:1005A0000098401C009000985028F9D31E4808304D
:1005B000006840F090001C4908310860002000905D
:1005C00002E00098401C009000985028F9D300BF2A
:1005D00015480830006820F003001349083108600E
:1005E00011480068114908400F4908600846006832
:1005F00020F48020086000200B490831086000BF0B
:1006000009480830006800200028F9D10848064948
:10061000091D0860002004490C31086002F0A6FAA8
:1006200008BD000088ED00E000380240FFFFF6FE44
:10063000103000240FB4084B10B504A902AA039887
:1006400000F03EF8044602A9002000F064FA2046BB
:1006500010BC5DF814FB0000170B000810B52DED61
:10066000028BB1EEC08A18EE100A20F00040C0F1F3
:10067000FF40C00F0AD010EE100A20F00040C0F179
:10068000FF40C00F04BF012000F014F8B0EE480A8C
:10069000BDEC028B10BD02E008C8121F08C1002A81
:1006A000FAD170477047002001E001C1121F002AF3
:1006B000FBD17047014908607047000074000020BA
:1006C0002DE9FF4F8DB00F460546002606E0252890
:1006D0000BD0DDE90F1290476D1C761C287800289E
:1006E000F5D111B03046BDE8F08F0024A246A146F6
:1006F0000122E94900E0044315F8013F203B02FADA
:1007000003F00842F7D128782A2810D06FF02F0282
:100710002878A0F13001092914D80AEB8A0102EBEC
:10072000410144F0020400EB010A6D1CF0E701CF27
:100730005FEA000A03D544F40054CAF1000A44F009
:1007400002046D1C28782E2817D115F8010F44F0EB
:1007500004042A280ED06FF02F022878A0F130016F
:1007600009290AD809EB890102EB410100EB0109D3
:100770006D1CF2E757F8049B6D1C28786C280FD08D
:1007800006DC4C2817D068280DD06A2814D104E064
:10079000742810D07A280FD10DE044F400140AE038
:1007A00044F4801401E044F440146978814202D199
:1007B00004F580146D1C6D1C28786E281ED00CDC8E
:1007C000632830D004DC00288BD0582811D19FE05A
:1007D000642867D069280CD164E073282DD004DC2C
:1007E0006F2872D0702804D194E075286ED07828D4
:1007F0006DD0DDE90F129047761C4BE1C4F3025037
:10080000022806D0032809D0042801CF09D00660A9
:1008100040E101CFF117C0E900613BE101CF068063
:1008200038E1067036E117F8040B8DF8000000205F
:100830008DF80100EB46012003E057F804BB4FF0B0
:10084000FF3061074FF0000102D40DE008F1010113
:10085000884649450FDA8045F8DB1BF80810002967
:10086000F4D108E008F1010188468142FADB1BF867
:1008700008100029F6D1DDE90F23AAEB0800814614
:10088000214600F031F9304400EB080604E0DDE9D0
:100890000F121BF8010B9047B8F10108F7D221465F
:1008A0004846F2E00A21C4F302524FF0000B0891CF
:1008B000022A04D001CFC117032A09D00AE0FF1D84
:1008C00027F00707F7E8020108E02CE01EE01FE030
:1008D00000B2C117042A01D140B2C117021E71F142
:1008E000000206DA0023D0EB030063EB01012D22A6
:1008F00002E0220504D52B228DF82420012203E0FA
:10090000E20701D02022F7E7904653E00A210BE0EE
:10091000102109E010214FF0000B44F004044FF0C7
:100920000809089103E008214FF0000B0891C4F377
:100930000252022A04D001CF0021032A06D006E089
:10094000FF1D27F00707F7E8020103E080B2042A41
:1009500000D1C0B24FF0000822072BD52A78702AA8
:1009600007D0DDF820C08CF0100C5CEA0B0C05D031
:100970000EE040228DF82420012208E050EA010315
:1009800006D030238DF824308DF8252002229046A1
:10099000089B83F0080353EA0B030BD150EA0102D2
:1009A00001D1620706D530228DF824204FF00108CE
:1009B000A9F101092A78582A04D038A20B9208AA72
:1009C0000A920BE03AA2F9E75B46089AFFF7D1FCDE
:1009D0000B9B9B5C0A9A521E0A92137050EA01020A
:1009E000F2D10A98ADEB000000F1200B600702D5B0
:1009F00024F4803401E04FF00109D94502DDA9EB70
:100A00000B0000E0002000EB0B0141440890AAEB32
:100A1000010AE00306D4DDE90F232146504600F029
:100A200063F806444FF0000908E009A911F809002D
:100A3000DDE90F12904709F10109761CC145F4DB8D
:100A4000E0030CD5DDE90F232146504600F04CF8B9
:100A5000064404E0DDE90F1230209047761C089927
:100A6000481E08900029F5DC08E00A980A990078E9
:100A7000491C0A91DDE90F129047761CBBF1000179
:100A8000ABF1010BF1DC21465046DDE90F2300F00C
:100A900019F806446D1C21E6092801003031323373
:100AA00034353637383961626364656600000000AA
:100AB0003031323334353637383941424344454694
:100AC000000000002DE9F041044600251E461746AF
:100AD000880404D405E039462020B0476D1C641E0C
:100AE000F9D52846BDE8F0812DE9F04104460025FE
:100AF0001E469046C80301D5302700E02027880411
:100B000004D505E041463846B0476D1C641EF9D552
:100B10002846BDE8F0810A68531C0B6010707047CE
:100B2000002107E0002200E0521C49F640439A42AF
:100B3000FAD3491C8142F5D3704700007FB582B0DB
:100B400015461C460A9E304810F814008DF8040023
:100B50002D4800EB440040788DF805002EB19DF83B
:100B60000500001DC0B28DF80500012D06D0022D34
:100B700013D0032D20D0042D3CD12CE09DF804305F
:100B80000222DDE9020100F0BBFE9DF805300322E0
:100B9000DDE9020100F0B4FE2DE09DF804300422EE
:100BA000DDE9020100F0ACFE9DF805300522DDE92B
:100BB000020100F0A5FE1EE09DF804300622DDE9EA
:100BC000020100F09DFE9DF805300722DDE90201DB
:100BD00000F096FE0FE09DF804300822DDE90201E6
:100BE00000F08EFE9DF805300922DDE9020100F0DB
:100BF00087FE00E000BF00BF8122DDE9020100F0B6
:100C0000DDFC06B070BD0000E02D000813B5212208
:100C1000DDE9000100F0D2FC00230222DDE9000141
:100C200000F06EFE00230322DDE9000100F068FE03
:100C300000230422DDE9000100F062FE002305220A
:100C4000DDE9000100F05CFE00230622DDE9000181
:100C500000F056FE00230722DDE9000100F050FEFF
:100C600000230822DDE9000100F04AFE00230922EA
:100C7000DDE9000100F044FE8122DDE9000100F021
:100C80009DFC1CBD7FB514461D46089E012C06D058
:100C9000022C11D0032C1CD0042C34D126E02B467E
:100CA0000222DDE9000100F02BFE33460322DDE9DC
:100CB000000100F025FE3BE02B460422DDE90001A7
:100CC00000F01EFE33460522DDE9000100F018FEAB
:100CD0002EE02B460622DDE9000100F011FE33462E
:100CE0000722DDE9000100F00BFE21E02B4608227F
:100CF000DDE9000100F004FE33460922DDE90001D0
:100D000000F0FEFD14E0601E022101EB4000C2B2C3
:100D10000023DDE9000100F0F3FD601E032101EB7B
:100D20004000C2B20023DDE9000100F0E9FD00BF90
:100D300000BF8122DDE9000100F040FC7FBD000022
:100D40007FB5044600F0B6FD00251DE0002618E042
:100D50001148825D114850F82510684600F066FF82
:100D6000DDE90001CDE902019DF80D0040B1DDE9AA
:100D7000020100F040F8DDE90201C4E900017FBD95
:100D8000761C042EE4D36D1C022DDFD3DDE90201B5
:100D9000C4E9000100BFF2E7D82D0008D02D0008FB
:100DA0002DE9FF4182B015461E46DDF830800F2444
:100DB00004EB051087B2234601220097DDE902010A
:100DC00000F021F800BF04EB061087B22346002292
:100DD0000097DDE9020100F016F800BF04EB0810EF
:100DE00087B2234602220097DDE9020100F00BF8EA
:100DF00006B0BDE8F08113B500231A46DDE9000115
:100E000000F07EFD1CBD7FB514461D46089EEBB26A
:100E1000A000801DC2B2DDE9000100F071FD2B12BF
:100E2000A000C01DC2B2DDE9000100F069FDF3B20F
:100E3000A0000830C2B2DDE9000100F061FD33120C
:100E4000A0000930C2B2DDE9000100F059FD7FBD0C
:100E50007FB5044600F02EFD00251DE0002618E0B9
:100E60001148825D114850F82510684600F0DEFEFA
:100E7000DDE90001CDE902019DF80D0040B1DDE999
:100E80000201FFF7C3FEDDE90201C4E900017FBDF5
:100E9000761C042EE4D36D1C022DDFD3DDE90201A4
:100EA000C4E9000100BFF2E7DC2D0008D02D0008E6
:100EB00077B581B016463046FFF7A8F93044441E96
:100EC000042575E0B4426AD3207830281BDB2078F3
:100ED000392818DC60782E280AD10120009020786B
:100EE0003038C3B2EAB2DDE90101FFF727FE54E072
:100EF0000020009020783038C3B2EAB2DDE9010169
:100F0000FFF71CFE49E0207861280DDB20787A2865
:100F10000ADC0020009020785738C3B2EAB2DDE93D
:100F20000101FFF70BFE38E0207841280DDB207827
:100F30005A280ADC0020009020783738C3B2EAB281
:100F4000DDE90101FFF7FAFD27E020782D2808D11F
:100F50000220EAB200230090DDE90101FFF792FED2
:100F60001BE020785F2808D10020EAB240230090DF
:100F7000DDE90101FFF786FE0FE02078602802D04E
:100F80002078272808D10020EAB280230090DDE9EC
:100F90000101FFF777FE00E06D1C641E07E00020F2
:100FA000EAB225230090DDE90101FFF7C7FD6D1EC0
:100FB000012D87DA7FBD00007FB5044600F07AFC82
:100FC00000251DE0002618E01148825D114850F808
:100FD0002510684600F02AFEDDE90001CDE9020196
:100FE0009DF80D0040B1DDE9020100F02BF8DDE9CC
:100FF0000201C4E900017FBD761C042EE4D36D1C00
:10100000022DDFD3DDE90201C4E9000100BFF2E7F0
:10101000342E00082C2E000877B581B01446642CBD
:1010200000DD64240025C4EB0430642190FBF1F062
:10103000284486B22B4600220096DDE9010100F02B
:1010400009F87FBD13B500231A46DDE9000100F061
:1010500057FC1CBD7FB514461D46089EEBB2A00090
:10106000801DC2B2DDE9000100F04AFC2B12A00095
:10107000C01DC2B2DDE9000100F042FCF3B2A000E5
:101080000830C2B2DDE9000100F03AFC3312A000E2
:101090000930C2B2DDE9000100F032FC7FBDF0B5DD
:1010A00003461C6A5D6A00200DE00126864016405A
:1010B0003EB187000F26BE40B443860001FA06F613
:1010C0003443461CB0B20828EFD3082011E00126B3
:1010D000864016405EB1A0F10806B7000F26BE405C
:1010E000B543A0F10806B60001FA06F63543461CE2
:1010F000B0B21028EBD31C625D62F0BDF0B50446BF
:101100000D4616462168E268002019E00127874055
:101110001F409FB14FEA400C032707FA0CF7B94371
:10112000470005FA07F739434FEA400C032707FA4F
:101130000CF7BA43470006FA07F73A43471CB8B220
:101140001028E3D32160E260F0BDF0B50C461546EF
:10115000012C03D146681E43466002E046689E4368
:101160004660826800210DE001268E401E403EB19F
:101170004F000326BE40B2434E0005FA06F6324346
:101180004E1CB1B21029EFD38260F0BD10B588B00B
:10119000324803C800F072FF0446314800788442A8
:1011A00003D014B1204600F069F82D4804702D4892
:1011B000007838B12B480078062803D029480078F9
:1011C000072849D106AB2622274803C801F062FB55
:1011D000002840D107AA244803C801F0E7FA0028F4
:1011E00039D120480078072832D104AB26221E4886
:1011F00003C801F04FFB50BB05AA1B4803C801F010
:10120000D5FA20BB9DF815309DF8142017A101A830
:10121000FFF710FA01AA184803C8FFF749FE4FF478
:10122000FA60FFF77DFC9DF817309DF816200FA19E
:1012300001A8FFF7FFF901AA0F4803C8FFF738FE1E
:101240004FF4FA60FFF76CFC00200649087002E0DA
:1012500007A800F047FD00BF08B010BD180000202F
:10126000700000204800002038000020253032782F
:1012700025303278000000000800002010B5044638
:1012800045480078072873D2DFE800F0690441423E
:101290005A826A002A2C03D104203F49087035E0A5
:1012A000232C03D100203C4908702FE0312C06D1BB
:1012B0003A48006800F596703849086026E0322CFC
:1012C00024D137480068032190FBF1F201FB1200A2
:1012D000401C3349086008460068012804D11422E4
:1012E000304803C8FFF798FE2D480068022804D153
:1012F00028222C4803C8FFF78FFE294800680328DE
:1013000004D13C22274803C8FFF786FE41E000BF16
:101310002A2C01D101F048FB302C02D101F044FB12
:101320000DE0312C06D11D48006800F596701B4970
:10133000086004E0232C02D100201749087028E03F
:101340002A2C0BD1012014490870174803C801F05A
:1013500007FB012802D100201449086019E000BFF2
:10136000232C06D100200C490870114908600EE0BA
:101370000EE0352C0BD10720074908700DA20F484D
:1013800003C8FFF795FD4FF4FA70FFF7C9FB00E0C3
:1013900000BF00BF10BD0000480000204C0000202E
:1013A0006800002010000020400000206C00002099
:1013B0006000002072454164000000000800002029
:1013C0001CB56846FFF7BCFC2148DDE9001206C0E9
:1013D0006846FFF73DFD1F48DDE9001206C068467C
:1013E000FFF7EAFD1C48DDE9001206C0684600F080
:1013F00015FE1A48DDE9001206C0684600F0EEFE50
:101400001748DDE9001206C0684600F037FF1548AE
:10141000DDE9001206C0684601F00CFA1248DDE969
:10142000001206C0684601F06BFA1048DDE90012B0
:1014300006C00020034602460090054803C8FFF797
:10144000AFFC0022044803C8FFF7E6FD1CBD000006
:1014500000000020080000201000002018000020DC
:101460002000002030000020380000204000002034
:1014700010B540F6014000F0B7FD4FF48073012233
:1014800002211248FFF73AFE4FF480730222012135
:101490000E48FFF75AFE4FF4807204210B48FFF705
:1014A000FEFD4FF40073012202210848FFF726FEDB
:1014B0004FF40073022201210448FFF746FE4FF467
:1014C000007204210148FFF7EAFD10BD000402404C
:1014D00010B541F2150000F087FD002209490A48C5
:1014E00000F03AF9A02300221146074800F0F9F96C
:1014F0004FF48061044800F051F8034800F0B2F95D
:1015000010BD0000A08601000054004010B540F658
:10151000054000F069FD0223012219460F48FFF73C
:10152000EDFD02231A4601210C48FFF70EFE0222B0
:1015300004210A48FFF7B3FD01231A460221074898
:10154000FFF7DCFD0123022219460448FFF7FDFDE9
:10155000012204210148FFF7A2FD10BD0014024042
:1015600010B541F2160000F03FFD002209490A487B
:1015700000F0F2F8A02300221146074800F0B1F96C
:101580004FF48061044800F009F8034800F06AF95C
:1015900010BD0000A0860100005800400A4600214E
:1015A000016821F480611143016070470A460021FF
:1015B000016821F4006111430160704737B514469A
:1015C000002500BF40F20161009800F064F9002896
:1015D000F8D1009800F07CFB00BF4FF4A0610098A8
:1015E00000F059F90028F8D09DF804106FF00102BE
:1015F000009800F06CF909E0681C0546164988421D
:1016000004D9009800F069FB00203EBD40F2015172
:10161000009800F040F90028EED040F20151009807
:1016200000F025F900BF40F20751009800F033F9AF
:101630000128F8D12146009800F004F900BF40F2DB
:101640000251009800F027F90028F8D0009800F027
:1016500044FB0120D9E70000A08601007FB51546B4
:101660001C46002600BF40F20161009800F013F90B
:101670000028F8D1009800F02BFB00BF4FF4A061C8
:10168000009800F008F90028F8D09DF80410012215
:10169000009800F01CF90AE0701C06462D498842AB
:1016A00005D9009800F019FB002004B070BD40F28D
:1016B0000151009800F0EFF80028EDD040F2015100
:1016C000009800F0D4F8022C03DC00210098FFF70A
:1016D00065FF022C03D1A1020098FFF767FF012CE0
:1016E00002D1009800F0F9FA27E0032C0BD100BFDB
:1016F00040F20251009800F0CEF80028F8D0002106
:101700000098FFF74BFF022C0AD100BF40F20251B4
:10171000009800F0C0F80028F8D0009800F0DDFA3A
:1017200040F20651009800F0B6F830B1009800F091
:1017300085F828706D1C601EC4B2002CD5D14FF402
:1017400080610098FFF72AFF00210098FFF72EFF25
:101750000120AAE7A08601002DE9F05F04460E46AD
:101760009346022000F0AEFB07463148B7FBF0F984
:10177000B9F13C0F01D34FF03C09D4F804A02AF092
:101780003F0A4AEA090AC4F804A02A4886421ED839
:101790002748B7FBF0F000F10108B8F13C0F02D385
:1017A0003C20206207E0B8F1020F02D8022020623C
:1017B00001E0C4F820807000B7FBF0F5042D00D2E2
:1017C0000425E069C5F30B010843E0612EE01A48E7
:1017D00086422BD84FF4967009FB00F04FF47A71D3
:1017E000B0FBF1F0401C2062BBF1000F08D106EB0A
:1017F0004600B7FBF0F5E06920F48040E06109E0C5
:1018000006EBC60000EB0610B7FBF0F5E06940F40C
:101810008040E061C5F30B0008B945F00105E069BF
:1018200040F40040E061E0692843E061BDE8F09FDA
:1018300040420F00A0860100801A06000146086998
:10184000C0B27047CAB202617047002107E00022AF
:1018500000E0521C49F640439A42FAD3491C8142A7
:10186000F5D37047016841F001010160704710B580
:1018700040F20152914202D1426982690AE000EBD2
:101880009112126801F01F040123A3409A4300EB58
:1018900091131A6010BD10B5024602EB911000685A
:1018A00001F01F040123A340184008B1012010BD1E
:1018B0000020FCE710B5FFF7DBFDFFF709FEFFF79F
:1018C00025FEFFF74DFE0120FFF7BFFF10BD12F10F
:1018D000020F02D121F0010101E041F0010101619B
:1018E000704730B50C460021016821F00201214308
:1018F0000160C3F3090342EA0305856030BD0000BF
:101900007FB514461D46002600BF40F201610098D5
:10191000FFF7C1FF0028F8D1009800F0D9F900BF07
:101920004FF4A0610098FFF7B6FF0028F8D09DF8AB
:1019300004106FF001020098FFF7C9FF0AE0701C65
:1019400006462249884205D9009800F0C6F90020D1
:1019500004B070BD40F201510098FFF79CFF0028D1
:10196000EDD040F201510098FFF781FF00BF40F237
:1019700007510098FFF78FFF0128F8D12146009802
:10198000FFF760FF00BF40F202510098FFF783FFAE
:101990000028F8D00220FFF758FF00BF40F207519F
:1019A0000098FFF778FF0128F8D129460098FFF743
:1019B00049FF00BF40F202510098FFF76CFF00287A
:1019C000F8D0009800F089F90120C1E7A086010055
:1019D0002DE9FF4116461D460A9C002700BF40F234
:1019E00001610098FFF757FF0028F8D1009800F038
:1019F0006FF900BF4FF4A0610098FFF74CFF00287B
:101A0000F8D09DF804106FF001020098FFF75FFF17
:101A10000BE0781C07464C49884206D9009800F034
:101A20005CF9002004B0BDE8F08140F2015100985B
:101A3000FFF731FF0028ECD040F201510098FFF78A
:101A400016FF00BF40F207510098FFF724FF01285E
:101A5000F8D131460098FFF7F5FE00BF40F2025181
:101A60000098FFF718FF0028F8D0009800F030F930
:101A700000BF4FF4A0610098FFF70DFF0028F8D0D9
:101A80009DF8041001220098FFF721FF09E0781C5F
:101A900007462D49884204D9009800F01EF900201D
:101AA000C0E740F201510098FFF7F5FE0028EED0A4
:101AB00040F201510098FFF7DAFE022C03DC00210E
:101AC0000098FFF76BFD022C03D1A1020098FFF7ED
:101AD0006DFD012C02D1009800F0FFF827E0032CE7
:101AE0000BD100BF40F202510098FFF7D4FE00284E
:101AF000F8D000210098FFF751FD022C0AD100BF59
:101B000040F202510098FFF7C6FE0028F8D0009876
:101B100000F0E3F840F206510098FFF7BCFE30B148
:101B20000098FFF78BFE28706D1C601EC4B2002C5D
:101B3000D5D14FF480610098FFF730FD0021009867
:101B4000FFF734FD01206DE7A08601002DE9FF417C
:101B500015461C460A9E002700BF40F2016100980E
:101B6000FFF799FE0028F8D1009800F0B1F800BF07
:101B70004FF4A0610098FFF78EFE0028F8D09DF882
:101B800004106FF001020098FFF7A1FE0BE0781C33
:101B900007462549884206D9009800F09EF80020A3
:101BA00004B0BDE8F08140F201510098FFF773FEE8
:101BB0000028ECD040F201510098FFF758FE00BF1A
:101BC00040F207510098FFF766FE0128F8D1294638
:101BD0000098FFF737FE00BF40F202510098FFF770
:101BE0005AFE0028F8D014E000BF40F207510098D8
:101BF000FFF751FE0128F8D121780098FFF722FE67
:101C000000BF40F202510098FFF745FE0028F8D0CF
:101C1000641C301EA6F10101CEB2E5D1009800F09F
:101C20005CF80120BCE70000A08601002DE9FC4122
:101C300004460D46164600200090019000958DF850
:101C40000460002700BF40F201612846FFF723FE31
:101C50000028F8D1284600F03BF800BF4FF4A061FF
:101C60002846FFF718FE0028F8D06FF00102314631
:101C70002846FFF72CFE10E0781C074613498842DF
:101C80000BD9009800F029F800208DF80500DDE957
:101C90000001C4E90001BDE8FC8140F20151284681
:101CA000FFF7F9FD0028E7D040F201510098FFF757
:101CB000DEFD284600F011F801208DF80500DDE971
:101CC0000001C4E9000100BFE5E70000A0860100B3
:101CD000016841F4807101607047016841F400714E
:101CE0000160704710B50446042226492046FEF7DD
:101CF00094FA88B940F2DC50234908604FF496709A
:101D0000224908604FF461702149086021A22348EC
:101D100003C8FFF7CDF829E0042221492046FEF749
:101D20007CFA78B940F6B830174908604FF416705D
:101D300016490860164908601AA2184803C8FFF738
:101D4000B7F813E0042219492046FEF766FA18B9DD
:101D500006201749087010BD16A2104803C8FFF7E7
:101D6000A7F84FF47A70FEF7DBFEF4E740F2DC50A0
:101D7000FEF7D6FE00201049086000F015FE00BFF7
:101D8000E9E70000742E00085400002058000020ED
:101D90005C0000205374645900000000080000201B
:101DA000782E000864454550000000007C2E000895
:101DB000480000204572720064000020FFF700FB1D
:101DC0000FE0FFF7E3F900F0A9FF00F00DF800F0D5
:101DD000D1FE6420FEF7A4FE02480068401C0149C1
:101DE0000860EEE75000002000B52DED028B87B0B3
:101DF0002E48007801281FD12D4803C800F0B0FDFF
:101E0000B8B92C480068401C2A4908600846006898
:101E1000642148434FF47A7190FBF1F01E280BDBEC
:101E20000420224908700022234803C8FFF7F4F871
:101E300002E000201F4908601C480078012831D1C9
:101E40001E48006800282DDC1D4806C8684600F0C2
:101E500045FADDED000A60EEA00A9DED011ADDED08
:101E6000011A41EE210A9DED021ADDED021A41EE42
:101E7000210AB0EE600AFEF7F1FBB0EE408AB7EE41
:101E8000080AB4EEC08AF1EE10FA0ADD052007490F
:101E900008704FF49670094908604FF47A70FEF7A5
:101EA0003FFE00BF07B0BDEC028B00BD4800002024
:101EB000400000206C000020100000204C0000209A
:101EC000300000202DE9F04F8CB0064600200A902B
:101ED0003EA090E8004CC068CDE905BECDF810A04A
:101EE00007900FF2EC0ADAE9000ACDE9020A0FF2D4
:101EF000E00ADAE9000ACDE9000A38480068C0F3D0
:101F000081000B900B9820B1012804D0022828D121
:101F100003E0334927E0334925E03048001F0068DB
:101F200000F03F072D48001F0068C0F3881C2B48B5
:101F3000001F0068C0F30140401C4FEA40092748D9
:101F4000001F006800F48008B8F5800F01D1254B10
:101F500000E0234BB3FBF7F000FB0CF0B0FBF9F112
:101F600001E01F4900BF00BF1C480068C0F3031414
:101F700004A8055D21FA05F218480068C0F3822420
:101F800002A8055D22FA05F0099014480068C0F324
:101F900042341DF8045022FA05F0089036B1012EA3
:101FA00006D0022E06D0032E0AD106E00A9108E0E0
:101FB0000A9206E009980A9003E008980A9000E067
:101FC00000BF00BF0A980CB0BDE8F08F0000000011
:101FD0000000000001020304060708090838024057
:101FE0000024F40040787D01074A02EB9011D1F8FB
:101FF000001800F01F0301229A401143024B03EB2B
:102000009012C2F8001870470030024013B5212228
:10201000DDE90001FFF7D2FA1CBD00007FB50446E0
:10202000FFF748FC00251DE0002618E01148825DFE
:10203000114850F825106846FFF7F8FDDDE900016A
:10204000CDE902019DF80D0040B1DDE90201FFF785
:10205000DDFFDDE90201C4E900017FBD761C042E2D
:10206000E4D36D1C022DDFD3DDE90201C4E90001D8
:1020700000BFF2E7402E0008382E000803B583B0F9
:10208000002001900290062001AB40220090DDE983
:102090000301FFF79DFC9DF8040000F0010010B162
:1020A000312005B000BD9DF8060000F0010008B128
:1020B0003220F6E79DF8080000F0010008B1332057
:1020C000EFE79DF8040000F0020008B13420E8E7D3
:1020D0009DF8060000F0020008B13520E1E79DF808
:1020E000080000F0020008B13620DAE79DF804008D
:1020F00000F0040008B13720D3E79DF8060000F097
:10210000040008B13820CCE79DF8080000F0040076
:1021100008B13920C5E79DF8040000F0080008B1B7
:102120002A20BEE79DF8060000F0080008B1302024
:10213000B7E79DF8080000F0080008B12320B0E7D9
:102140000020AEE713B50122DDE90001FFF736FA02
:102150001CBD13B580236B22DDE90001FFF7D0FB26
:102160000A20FFF772FB01236B22DDE90001FFF774
:10217000C7FB0A20FFF769FB00231922DDE90001F4
:10218000FFF7BEFB18231B22DDE90001FFF7B8FBB8
:1021900018231C22DDE90001FFF7B2FB04231A22F9
:1021A000DDE90001FFF7ACFB04231D22DDE900019E
:1021B000FFF7A6FB00236C22DDE90001FFF7A0FB7F
:1021C00000231E22DDE90001FFF79AFB00232322F2
:1021D000DDE90001FFF794FB1CBD00007FB504465C
:1021E000FFF768FB00251DE0002618E01148825D1E
:1021F000114850F825106846FFF718FDDDE9000189
:10220000CDE902019DF80D0040B1DDE90201FFF7C3
:1022100099FFDDE90201C4E900017FBD761C022EB1
:10222000E4D36D1C022DDFD3DDE90201C4E9000116
:1022300000BFF2E74C2E0008442E000813B582B010
:1022400000240122DDE90201FFF7B8F91022DDE9DF
:102250000201FFF7B3F90A20FFF7F7FA022301AAF8
:10226000DDE90201FFF7FAF99DF805009DF8041079
:1022700000EB0124204604B010BD00007FB50446E9
:10228000FFF718FB00251DE0002618E01148825DCD
:10229000114850F825106846FFF7C8FCDDE9000139
:1022A000CDE902019DF80D0040B1DDE90201FFF723
:1022B00050FFDDE90201C4E900017FBD761C022E5A
:1022C000E4D36D1C022DDFD3DDE90201C4E9000176
:1022D00000BFF2E7502E0008442E00082DE9F74F0A
:1022E0002DED048B8CB004460020019002900390E9
:1022F00004900E2001AB3B220090DDE91101FFF7B5
:1023000067FB9DF805009DF8041040EA012005B226
:102310009DF807009DF8061040EA012006B29DF8DE
:1023200009009DF8081040EA012007B29DF80B0053
:102330009DF80A1040EA01200FFA80FA9DF80D007E
:102340009DF80C1040EA01200FFA80F89DF80F006C
:102350009DF80E1040EA01200FFA80F99DF8110057
:102360009DF8101040EA01200FFA80FB2846FDF787
:10237000D3FF9FED310B53EC102BFDF75BFFFDF707
:10238000DCFF05903046FDF7C7FF9FED2B0B53ECAC
:10239000102BFDF74FFFFDF7D0FF06903846FDF7F5
:1023A000BBFF9FED250B53EC102BFDF743FFFDF713
:1023B000C4FF0790AAF1190000EB8000400040F62E
:1023C000C44190FBF1F000EE100AB8EEC00AF3EE43
:1023D000090A30EE200A8DED0B0A4046FDF79CFFFE
:1023E0009FED170B53EC102BFDF724FFFDF7A5FF16
:1023F00008904846FDF790FF9FED110B53EC102B12
:10240000FDF718FFFDF799FF09905846FDF784FF87
:102410009FED0B0B53EC102BFDF70CFFFDF78DFF21
:102420000A901C2205A92046FDF7DEFE0CB0BDEC8B
:10243000048BBDE8FE8F0000344C4C9B9A99733F8F
:1024400008AC1C5A643BAF3F13B503231422DDE9EB
:10245000000100F018F81CBD03B583B0012002ABE9
:1024600014220090DDE90301FFF7B2FA9DF808009D
:1024700000F0030028B903231422DDE9030100F072
:102480001BF805B000BD3FB583B015461C460020C3
:102490000290012002AB2A460090DDE90301FFF71C
:1024A00097FA9DF8080020EA04032A46DDE90301B3
:1024B000FFF726FA07B030BD3FB583B015461C467E
:1024C00000200290012002AB2A460090DDE90301C2
:1024D000FFF77EFA9DF8080040EA04032A46DDE98A
:1024E0000301FFF70DFA07B030BD2DE9FF4F85B0AE
:1024F00014469846DDE9129A149E022004900027A3
:102500004FF0000B0C2C05D00E2C07D112274FF0EA
:10251000100B04E077274FF0300B00E000BF00BF46
:1025200047F080030222DDE90501FFF7E9F9802386
:102530000422DDE90501FFF7A6FF00230122DDE902
:102540000501FFF7DDF980230A22DDE90501FFF728
:10255000B3FF43460922CDF80090DDE90501FFF7FE
:10256000F5FA23460122DDE90501FFF7C9F90C2C34
:1025700005D180230D22DDE90501FFF79DFF4FF412
:102580007A7500BF012002AB04220090DDE905014D
:10259000FFF71EFA681E85B255B19DF8080000F0DD
:1025A000010028B99DF8080000EA0B000028E9D0D6
:1025B00080230D22DDE90501FFF765FF002D54D0D2
:1025C000012002AB06220090DDE90501FFF700FAC9
:1025D0009DF8080000F01B00002844D104909DF8ED
:1025E0000800384000F0010008B1012004900C2CD4
:1025F0003BD1012002AB0A220090DDE90501FFF783
:10260000E7F9012003AB0C220090DDE90501FFF79B
:10261000DFF99DF80C0000F0070003909DF80C0016
:1026200040B19DF80800401E9DF80C1001EBC00061
:10263000308003E09DF80800C00030809DF808005D
:1026400008B9012002909DF80800122801DD12202F
:1026500002909DF80800534609220090DDE905012B
:10266000FFF7B6F901E00220049080230C22DDE997
:102670000501FFF721FF00230122DDE90501FFF736
:102680003FF9049809B0BDE8F08F13B5DDE900010A
:1026900000F011F8DDE90001FFF7D6FE0A20FFF790
:1026A000D4F8DDE90001FFF7D7FE4122DDE90001A2
:1026B00000F03CF81CBD13B50F230122DDE9000139
:1026C000FFF71EF90A20FFF7C0F83D231122DDE9CC
:1026D0000001FFF715F91E232D22DDE90001FFF7A8
:1026E0000FF900232C22DDE90001FFF709F98D2302
:1026F0002A22DDE90001FFF703F93E232B22DDE961
:102700000001FFF7FDF840231522DDE90001FFF786
:10271000F7F880233322DDE90001FFF7B4FE402300
:102720001522DDE90001FFF7EBF81CBD37B51446B3
:10273000412C37D108231A46DDE90001FFF7E0F804
:102740003D231122DDE90001FFF7DAF88623172285
:10275000DDE90001FFF7D4F87F232622DDE900013F
:10276000FFF7CEF81E232D22DDE90001FFF7C8F8A0
:1027700000232C22DDE90001FFF7C2F88D232A2275
:10278000DDE90001FFF7BCF83E232B22DDE9000163
:10279000FFF7B6F80A20FFF758F8DDE90001FFF768
:1027A0005BFE01E002203EBD0020FCE7F7B58AB0E9
:1027B0001546002708231A46DDE90A01FFF763FEE4
:1027C00000230D22DDE90A01FFF79AF880230E228B
:1027D000DDE90A01FFF757FE93208DF81000202055
:1027E0008DF8110009A804A9022204ABCDE900214B
:1027F00002900C22DDE90A01FFF777FE064686B952
:10280000002407E004A8005D285504A8005D4740A7
:10281000601CC4B2042CF5DB04A8005DB84200D0F3
:10282000022680230E22DDE90A01FFF745FE30462D
:102830000DB0F0BD7FB50446FFF73CF800251DE064
:10284000002618E01148825D114850F825106846AE
:10285000FFF7ECF9DDE90001CDE902019DF80D007B
:1028600040B1DDE90201FFF710FFDDE90201C4E933
:1028700000017FBD761C042EE4D36D1C022DDFD336
:10288000DDE90201C4E9000100BFF2E75C2E0008A7
:10289000542E00087FB58AB015461C4608231A46F8
:1028A000DDE90A01FFF7EFFD07230D22DDE90A014B
:1028B000FFF726F803231422DDE90A01FFF7FCFDE8
:1028C0008DF8105009A804A9012204ABCDE900211C
:1028D00002900C22DDE90A01FFF707FE064656B911
:1028E000BDF82400102806D19DF8100020709DF836
:1028F0001100607000E0022630460EB070BD00008E
:102900007FB50446FEF7D6FF00251DE0002618E03F
:102910001148825D114850F825106846FFF786F986
:10292000DDE90001CDE902019DF80D0040B1DDE9CE
:10293000020100F02AF8DDE90201C4E900017FBDCF
:10294000761C042EE4D36D1C022DDFD3DDE90201D9
:10295000C4E9000100BFF2E7682E0008602E0008FD
:1029600003B583B000200290012002AB002200904A
:10297000DDE90301FFF72CF89DF8080000F00100E5
:1029800002909DF8080005B000BD13B50023022297
:10299000DDE90001FEF7B4FFFF230322DDE90001BA
:1029A000FEF7AEFF1CBD000038B51C4803C8FFF79A
:1029B00045FC0546962D21D219A21B4803C8FEF7F7
:1029C00077FA002418E0002064231A460090174884
:1029D00003C8FEF7E5F94FF49670FEF7A1F8002062
:1029E000034602460090114803C8FEF7D9F94FF498
:1029F0009670FEF795F8641C032CE4DB01200C496B
:102A000008700C4800680C49086014220B4803C881
:102A1000FEF702FB01200A49086038BD20000020B3
:102A20004C497445204C6F00080000200000002035
:102A300048000020540000204C000020100000201E
:102A40006800002010B5022005490870054800689C
:102A5000054908600022054803C8FEF7DDFA10BDED
:102A600048000020580000204C00002010000020EA
:102A7000002000213A4A126842F48032384B1A6032
:102A800000BF401C364A126802F4003119B94FF6F3
:102A9000FF729042F5D1324A126802F400320AB94C
:102AA00000BFFEE72E4A4032126842F080522C4BA3
:102AB00040331A602B4A126842F44042294B1A6094
:102AC000274A08321268264B08331A601A461268E1
:102AD00042F400421A601A46126842F4A0521A6088
:102AE000214A1B1F1A601A1F126842F080721B1FB6
:102AF0001A6000BF1A4A126802F00072002AF9D068
:102B0000184A126842F48032164B1A6000BF154A08
:102B1000526802F48032002AF9D0124A126842F454
:102B20000032104B1A6000BF0E4A526802F40032A5
:102B3000002AF9D00A4A0832126822F00302084B30
:102B400008331A601A46126842F002021A6000BF87
:102B5000034A0832126802F00802002AF8D07047CF
:102B600000380240007000401964400910B5FFF7BA
:102B70007FFF10BD7FB558480078082812D2DFE8E3
:102B800000F0041231506F7D8B9F052003460246F2
:102B90000090524803C8FEF703F951A2524803C8F7
:102BA000FEF786F995E000206423024600904B482A
:102BB00003C8FEF7F5F84D4800683C2190FBF1F2A0
:102BC00001FB12044948006890FBF1F523462A46B0
:102BD00047A101A8FDF72EFD01AA434803C8FEF74F
:102BE00067F976E0642000231A4600903B4803C84A
:102BF000FEF7D6F83D4800683C2190FBF1F201FB5E
:102C000012043A48006890FBF1F523462A4638A1A1
:102C100001A8FDF70FFD01AA334803C8FEF748F9E4
:102C200057E064200023024600902C4803C8FEF7BA
:102C3000B7F82E4800683C2190FBF1F201FB12042A
:102C40002A48006890FBF1F523462A4628A101A8EE
:102C5000FDF7F0FC01AA244803C8FEF729F938E083
:102C6000002064231A4600901C4803C8FEF798F819
:102C700022A21D4803C8FEF71BF92AE032200346B2
:102C800000220090154803C8FEF78AF81DA21648D6
:102C900003C8FEF70DF91CE06420034602460090CD
:102CA0000E4803C8FEF77CF8184819A1026801A86D
:102CB000FDF7C0FC01AA0C4803C8FEF7F9F808E0CC
:102CC0006420034600220090044803C8FEF768F819
:102CD00000BF00BF7FBD00004800002000000020B2
:102CE0002D2D2D2D00000000080000204C0000209C
:102CF000253032642E253032640000005041555397
:102D000000000000536E6F6F0000000060000020A4
:102D1000646F6E45253032640000000010B526480F
:102D200000680A2846DB0020234908602348006821
:102D3000002804DD21480068401E20490860204822
:102D40000078012806D0022823D0032822D00528A5
:102D50002ED126E019480068002819DC19480068BF
:102D6000401C1849086018480068401C1649086053
:102D700008460068042809DB002008601348006842
:102D80000E49086003200E49087001E0FFF75AFE63
:102D90000FE000BF09480068002801DCFFF704FECF
:102DA00007E006480068002801DCFFF74BFE00E062
:102DB00000BF00BF10BD0000500000204C000020EC
:102DC0004800002060000020640000205C0000201B
:102DD0000054004000580040C0C2C4C6E0E2E4E62F
:102DE000F8013000D802780230036803E8033800A5
:102DF000F8037803B803E003C801F002C8038803AE
:102E0000E801B00320007000D003C001A802A002B6
:102E1000E0029803380380022003C003F00110038E
:102E20005003B0017003480200020000005400404B
:102E300000580040C8CACCCE0054004000580040A2
:102E4000E8EAECEE005400400058004046B8888A9A
:102E5000D0D2000000540040005800405052545658
:102E600000540040005800403032343600540040D6
:102E700000580040FE1F7FC25E6F7A8B9CADBECFB4
:102E8000A02E000800000020780000009606000830
:102E9000182F00087800002000040000A606000893
:102EA0000000000000000000000000000000000022
:102EB0000000000000000000000000000000000012
:102EC0000000000000000000000000000000000002
:102ED00000000000000000000000000000000000F2
:102EE00000000000000000000000000000000000E2
:102EF00000000000DC0500002C010000840300003D
:102F000000000000000000000100000000000000C0
:082F10000000000000000000B9
:04000005080001AD41
:00000001FF
