:020000040800F2
:10000000B0040020C5010008CD010008CF010008A0
:10001000D1010008D3010008D5010008000000004C
:10002000000000000000000000000000D7010008F0
:10003000D901000800000000DB010008DD01000814
:10004000DF010008DF010008DF010008DF01000810
:10005000DF010008DF010008DF010008DF01000800
:10006000DF010008DF010008DF010008DF010008F0
:10007000DF010008DF010008DF010008DF010008E0
:10008000DF010008DF010008DF010008DF010008D0
:10009000DF010008DF010008DF010008DF010008C0
:1000A000DF01000835060008DF010008DF01000855
:1000B000DF010008DF010008DF010008DF010008A0
:1000C000DF010008DF010008DF010008DF01000890
:1000D000DF010008DF010008DF010008DF01000880
:1000E000DF010008DF010008DF010008DF01000870
:1000F000DF010008DF010008DF010008DF01000860
:10010000DF010008DF010008DF010008DF0100084F
:10011000DF010008DF010008DF010008DF0100083F
:10012000DF010008DF010008DF010008DF0100082F
:10013000DF010008DF010008DF010008DF0100081F
:10014000DF010008DF010008DF010008DF0100080F
:10015000DF010008DF010008DF010008DF010008FF
:10016000DF010008DF010008DF010008DF010008EF
:10017000DF010008DF010008DF01000800000000C7
:10018000DF010008DF010008DF010008DF010008CF
:10019000DF010008DF010008DF01000800000000A7
:1001A000DF010008DF010008DF010008DFF810D0E0
:1001B00000F0B4F900480047DD230008AFF30080E9
:1001C000B00400200648804706480047FEE7FEE7E7
:1001D000FEE7FEE7FEE7FEE7FEE7FEE7FEE7FEE7F7
:1001E00061050008AD01000840EA01039B0703D048
:1001F00009E008C9121F08C0042AFAD203E011F866
:10020000013B00F8013B521EF9D27047421C10F826
:10021000011B0029FBD1801A704730B5044600202D
:10022000034600E05B1C934203D2E05CCD5C401BC4
:10023000F8D030BD2DE9FE4F81EA030404F00044FC
:1002400021F0004100944FF0000B23F0004350EAEE
:1002500001045ED052EA03045BD0C3F30A54C1F335
:100260000A552C44A4F2F3340194A0FB0254C1F3C8
:10027000130141F48011C3F3130343F4801301FB12
:10028000024400FB034E840A970A44EA815447EA79
:100290008357A4FB076802958D0A05FB07854FEA83
:1002A000932C04FB0C542705029D4FEA065847EA9D
:1002B0001637B5EB08056EEB070C870E920E47EA72
:1002C000811742EA8312A7FB0201B6EB0B0164EB34
:1002D00000042B0D43EA0C335E1844EB1C50DA4645
:1002E0005146E7FB0201C5F313044FEA0B3343EA1F
:1002F00014534FEA0432019C43EA0603A4F10C04B0
:100300000294009CCDE900B400F0B9F803B0BDE858
:10031000F08F00200146F9E70EB5C10F80EAE070CA
:100320000844CA07002140F233438DE80E000A4614
:100330000B4600F0A4F803B000BD01F0004330B458
:1003400021F0004150EA010206D00A0DA2F56072C8
:10035000C1F31301002A02DC30BC00207047440FB7
:1003600044EAC104C100E01830BC00EBC25000F008
:1003700040B82DE9F05F0546002092469B4688462E
:100380000646814640241BE0284641464746224611
:1003900000F0D6F853465A46C01A914110D3114680
:1003A0001846224600F016F82D1A67EB01084F4652
:1003B00022460120002100F00DF817EB00094E4104
:1003C000201EA4F10104DFDC484631462A4643469C
:1003D000BDE8F09F202A04DB203A00FA02F1002059
:1003E00070479140C2F1200320FA03F31943904073
:1003F00070470029A8BF7047401C490008BF20F083
:100400000100704710B4B0FA80FC00FA0CF050EA1A
:10041000010404BF10BC704749B1CCF1200421FA9B
:1004200004F411FA0CF118BF012121430843A3EB96
:100430000C01CB1D4FEA00614FEA102042BF0020A3
:1004400010BC704700EBC35010440029A4BF10BC7F
:100450007047401C490008BF20F0010010BC7047E5
:1004600010B5141E73F1000408DA401C41F10001BC
:1004700092185B411A4301D120F0010010BD2DE913
:10048000F04D92469B4611B1B1FA81F202E0B0FA0A
:1004900080F220329046FFF79DFF04460F4640EA67
:1004A0000A0041EA0B0153465A46084313D011464D
:1004B00053EA010019D0C8F14002504600F040F85C
:1004C00005460E46504659464246FFF783FF08430D
:1004D00005D0012004E020463946BDE8F08D00201B
:1004E000054346EAE0762C4337430A986305E40A5D
:1004F000A0EB08000022FD0A44EA47540A3002D566
:1005000000200146E9E7010510196941DDE90845C8
:1005100000196941BDE8F04DA2E70000064C074D07
:1005200006E0E06840F0010394E8070098471034C3
:10053000AC42F6D3FFF73EFE743B0008943B000844
:10054000202A04DB203A21FA02F00021704721FA28
:1005500002F3D040C2F1200291400843194670478F
:1005600008B53048006840F470002E4908602E48F5
:10057000006840F001002C49086000BF2A4800686C
:1005800000F002000028F9D000BF274808300068BA
:1005900040F080002449083108600020009002E00B
:1005A0000098401C009000985028F9D31E4808304D
:1005B000006840F090001C4908310860002000905D
:1005C00002E00098401C009000985028F9D300BF2A
:1005D00015480830006820F003001349083108600E
:1005E00011480068114908400F4908600846006832
:1005F00020F48020086000200B490831086000BF0B
:1006000009480830006800200028F9D10848064948
:10061000091D0860002004490C31086002F06EFEDC
:1006200008BD000088ED00E000380240FFFFF6FE44
:100630001030002410B501210E4802F080FFC0B137
:100640000D480068002804DD0B480068401E0A4978
:1006500008600A480068002804DD08480068401E59
:10066000064908600120064908700121014802F08E
:1006700063FF10BD00000140740000207C000020DA
:10068000780000200FB4084B10B504A902AA039803
:1006900000F01CF8044602A9002000F042FA2046AF
:1006A00010BC5DF814FB0000230B000802E008C832
:1006B000121F08C1002AFAD170477047002001E0DC
:1006C00001C1121F002AFBD1704700002DE9FF4F26
:1006D0008DB00F460546002606E025280BD0DDE943
:1006E0000F1290476D1C761C28780028F5D111B0A8
:1006F0003046BDE8F08F0024A246A1460122E94918
:1007000000E0044315F8013F203B02FA03F00842E1
:10071000F7D128782A2810D06FF02F022878A0F17E
:100720003001092914D80AEB8A0102EB410144F097
:10073000020400EB010A6D1CF0E701CF5FEA000A3A
:1007400003D544F40054CAF1000A44F002046D1CBD
:1007500028782E2817D115F8010F44F004042A2810
:100760000ED06FF02F022878A0F1300109290AD8A5
:1007700009EB890102EB410100EB01096D1CF2E775
:1007800057F8049B6D1C28786C280FD006DC4C2889
:1007900017D068280DD06A2814D104E0742810D02E
:1007A0007A280FD10DE044F400140AE044F48014D8
:1007B00001E044F440146978814202D104F58014C8
:1007C0006D1C6D1C28786E281ED00CDC632830D080
:1007D00004DC00288BD0582811D19FE0642867D012
:1007E00069280CD164E073282DD004DC6F2872D006
:1007F000702804D194E075286ED078286DD0DDE99A
:100800000F129047761C4BE1C4F30250022806D029
:10081000032809D0042801CF09D0066040E101CFA8
:10082000F117C0E900613BE101CF068038E10670B5
:1008300036E117F8040B8DF8000000208DF8010058
:10084000EB46012003E057F804BB4FF0FF3061078F
:100850004FF0000102D40DE008F10101884649453E
:100860000FDA8045F8DB1BF808100029F4D108E006
:1008700008F1010188468142FADB1BF808100029C3
:10088000F6D1DDE90F23AAEB08008146214600F0EE
:1008900031F9304400EB080604E0DDE90F121BF8E3
:1008A000010B9047B8F10108F7D221464846F2E023
:1008B0000A21C4F302524FF0000B0891022A04D01F
:1008C00001CFC117032A09D00AE0FF1D27F007074F
:1008D000F7E8020108E02CE01EE01FE000B2C117BB
:1008E000042A01D140B2C117021E71F1000206DADA
:1008F0000023D0EB030063EB01012D2202E022056F
:1009000004D52B228DF82420012203E0E20701D038
:100910002022F7E7904653E00A210BE0102109E07E
:1009200010214FF0000B44F004044FF00809089127
:1009300003E008214FF0000B0891C4F30252022A91
:1009400004D001CF0021032A06D006E0FF1D27F0C6
:100950000707F7E8020103E080B2042A00D1C0B221
:100960004FF0000822072BD52A78702A07D0DDF82F
:1009700020C08CF0100C5CEA0B0C05D00EE040227D
:100980008DF82420012208E050EA010306D030232C
:100990008DF824308DF8252002229046089B83F0A4
:1009A000080353EA0B030BD150EA010201D162079D
:1009B00006D530228DF824204FF00108A9F1010955
:1009C0002A78582A04D038A20B9208AA0A920BE07F
:1009D0003AA2F9E75B46089AFFF7CBFC0B9B9B5CBE
:1009E0000A9A521E0A92137050EA0102F2D10A9832
:1009F000ADEB000000F1200B600702D524F4803439
:100A000001E04FF00109D94502DDA9EB0B0000E040
:100A1000002000EB0B0141440890AAEB010AE0031F
:100A200006D4DDE90F232146504600F063F8064462
:100A30004FF0000908E009A911F80900DDE90F12DB
:100A4000904709F10109761CC145F4DBE0030CD5A0
:100A5000DDE90F232146504600F04CF8064404E03F
:100A6000DDE90F1230209047761C0899481E089047
:100A70000029F5DC08E00A980A990078491C0A91D7
:100A8000DDE90F129047761CBBF10001ABF1010BC1
:100A9000F1DC21465046DDE90F2300F019F8064449
:100AA0006D1C21E6092801003031323334353637E8
:100AB00038396162636465660000000030313233AA
:100AC000343536373839414243444546000000004A
:100AD0002DE9F041044600251E461746880404D43B
:100AE00005E039462020B0476D1C641EF9D5284624
:100AF000BDE8F0812DE9F041044600251E469046F0
:100B0000C80301D5302700E02027880404D505E07C
:100B100041463846B0476D1C641EF9D52846BDE8ED
:100B2000F0810A68531C0B60107070470120304937
:100B3000096809B9002054E02E490978012906D036
:100B4000022916D0032926D0042946D135E02849A8
:100B5000096801290BDB26490968B42907DC244907
:100B60000968C1EB01118900234A116000E00020EF
:100B700035E01F49096801290BDB1D4909683C293B
:100B800007DC1B490968C1EB011189001B4A116090
:100B900000E0002023E01649096801290BDB144915
:100BA0000968782907DC12490968C1EB011189003D
:100BB000134A116000E0002011E00D490968012985
:100BC00009DB0B490968B1F5FA7F04DC08490968BB
:100BD0000C4A116000E0002001E0002000BF00BFCF
:100BE00000BF0021024A1160024A117070470000E4
:100BF00054000020580000208C00002090000020AD
:100C000094000020AC0000207FB582B015461C4641
:100C10000A9E304810F814008DF804002D4800EBAF
:100C2000440040788DF805002EB19DF80500001DA8
:100C3000C0B28DF80500012D06D0022D13D0032D72
:100C400020D0042D3CD12CE09DF804300222DDE9B7
:100C5000020101F067F99DF805300322DDE9020188
:100C600001F060F92DE09DF804300422DDE9020175
:100C700001F058F99DF805300522DDE9020101F087
:100C800051F91EE09DF804300622DDE9020101F071
:100C900049F99DF805300722DDE9020101F042F92A
:100CA0000FE09DF804300822DDE9020101F03AF975
:100CB0009DF805300922DDE9020101F033F900E079
:100CC00000BF00BF8122DDE9020100F089FF06B00C
:100CD00070BD0000C83A000813B52122DDE900010B
:100CE00000F07EFF00230222DDE9000101F01AF985
:100CF00000230322DDE9000101F014F9002304229E
:100D0000DDE9000101F00EF900230522DDE9000113
:100D100001F008F900230622DDE9000101F002F9E3
:100D200000230722DDE9000101F0FCF8002308227E
:100D3000DDE9000101F0F6F800230922DDE90001F8
:100D400001F0F0F88122DDE9000100F049FF1CBD4F
:100D50007FB514461D46089E012C06D0022C11D0EA
:100D6000032C1CD0042C34D126E02B460222DDE9D2
:100D7000000101F0D7F833460322DDE9000101F05C
:100D8000D1F83BE02B460422DDE9000101F0CAF86E
:100D900033460522DDE9000101F0C4F82EE02B46C0
:100DA0000622DDE9000101F0BDF833460722DDE946
:100DB000000101F0B7F821E02B460822DDE900012F
:100DC00001F0B0F833460922DDE9000101F0AAF88C
:100DD00014E0601E022101EB4000C2B20023DDE9F5
:100DE000000101F09FF8601E032101EB4000C2B238
:100DF0000023DDE9000101F095F800BF00BF81226A
:100E0000DDE9000100F0ECFE7FBD00007FB5044687
:100E100001F062F800251DE0002618E01148825D0F
:100E2000114850F82510684601F012FADDE900017A
:100E3000CDE902019DF80D0040B1DDE9020100F0AD
:100E400040F8DDE90201C4E900017FBD761C042EF3
:100E5000E4D36D1C022DDFD3DDE90201C4E90001FA
:100E600000BFF2E7C03A0008B83A00082DE9FF4198
:100E700082B015461E46DDF830800F2404EB0510C5
:100E800087B2234601220097DDE9020100F021F834
:100E900000BF04EB061087B2234600220097DDE96D
:100EA000020100F016F800BF04EB081087B22346D9
:100EB00002220097DDE9020100F00BF806B0BDE860
:100EC000F08113B500231A46DDE9000101F02AF88C
:100ED0001CBD7FB514461D46089EEBB2A000801DC8
:100EE000C2B2DDE9000101F01DF82B12A000C01D07
:100EF000C2B2DDE9000101F015F8F3B2A00008303C
:100F0000C2B2DDE9000101F00DF83312A000093092
:100F1000C2B2DDE9000101F005F87FBD7FB50446EE
:100F200000F0DAFF00251DE0002618E01148825D80
:100F3000114850F82510684601F08AF9DDE90001F2
:100F4000CDE902019DF80D0040B1DDE90201FFF796
:100F5000C3FEDDE90201C4E900017FBD761C042E59
:100F6000E4D36D1C022DDFD3DDE90201C4E90001E9
:100F700000BFF2E7C43A0008B83A000877B581B07C
:100F800016463046FFF742F93044441E042575E00A
:100F9000B4426AD3207830281BDB2078392818DC4B
:100FA00060782E280AD10120009020783038C3B212
:100FB000EAB2DDE90101FFF727FE54E000200090CE
:100FC00020783038C3B2EAB2DDE90101FFF71CFE38
:100FD00049E0207861280DDB20787A280ADC00209F
:100FE000009020785738C3B2EAB2DDE90101FFF77B
:100FF0000BFE38E0207841280DDB20785A280ADCE7
:101000000020009020783738C3B2EAB2DDE9010150
:10101000FFF7FAFD27E020782D2808D10220EAB258
:1010200000230090DDE90101FFF792FE1BE020782C
:101030005F2808D10020EAB240230090DDE90101D9
:10104000FFF786FE0FE02078602802D0207827285E
:1010500008D10020EAB280230090DDE90101FFF70A
:1010600077FE00E06D1C641E07E00020EAB2252335
:101070000090DDE90101FFF7C7FD6D1E012D87DA44
:101080007FBD00007FB5044600F026FF00251DE06F
:10109000002618E01148825D114850F82510684676
:1010A00001F0D6F8DDE90001CDE902019DF80D005F
:1010B00040B1DDE9020100F02BF8DDE90201C4E9ED
:1010C00000017FBD761C042EE4D36D1C022DDFD3FE
:1010D000DDE90201C4E9000100BFF2E71C3B0008A2
:1010E000143B000877B581B01446642C00DD6424FD
:1010F0000025C4EB0430642190FBF1F0284486B253
:101100002B4600220096DDE9010100F009F87FBDC1
:1011100013B500231A46DDE9000100F003FF1CBDF2
:101120007FB514461D46089EEBB2A000801DC2B2DA
:10113000DDE9000100F0F6FE2B12A000C01DC2B2D6
:10114000DDE9000100F0EEFEF3B2A0000830C2B20B
:10115000DDE9000100F0E6FE3312A0000930C2B262
:10116000DDE9000100F0DEFE7FBD00003EB5044673
:101170000D461C48047000201B4908601A201B49BA
:101180000870012C06D0022C0BD0032C10D0042C9C
:101190001CD114E01448026815A16846FFF772FAE2
:1011A00019E01148026815A16846FFF76BFA12E0D2
:1011B0000D48026814A16846FFF764FA0BE00A487C
:1011C000026814A16846FFF75DFA04E014A16846BE
:1011D000FFF758FA00BF00BF6A46134803C8FFF77D
:1011E000CDFE3EBD580000205400002070000020BD
:1011F0004663735425303264000000005273745407
:1012000025303264000000004C67525425303264AF
:10121000000000004C5F4C74253032640000000078
:10122000455252200000000008000020F0B503469F
:101230001C6A5D6A00200DE00126864016403EB122
:1012400087000F26BE40B443860001FA06F63443F9
:10125000461CB0B20828EFD3082011E001268640D2
:1012600016405EB1A0F10806B7000F26BE40B54398
:10127000A0F10806B60001FA06F63543461CB0B2E6
:101280001028EBD31C625D62F0BDF0B504460D463C
:1012900016462168E268002019E0012787401F40B8
:1012A0009FB14FEA400C032707FA0CF7B9434700F8
:1012B00005FA07F739434FEA400C032707FA0CF702
:1012C000BA43470006FA07F73A43471CB8B210285A
:1012D000E3D32160E260F0BDF0B50C461546012C69
:1012E00003D146681E43466002E046689E4346605E
:1012F000826800210DE001268E401E403EB14F0065
:101300000326BE40B2434E0005FA06F632434E1C99
:10131000B1B21029EFD38260F0BD00001FB548487C
:1013200003C801F07FFA044646480078844203D09F
:1013300014B1204600F09EF84248047042480078FC
:1013400098B14148007808280FD03F4800780A2813
:101350000BD03D4800780F2807D03B480078102874
:1013600003D039480078112869D103AB26223748C9
:1013700003C801F063FE00284ED1354A334803C844
:1013800001F0E8FD002859D12F4800780F280AD134
:1013900030482F490968016012202B49087002204B
:1013A0002D4908604AE02848007810280AD12B48C7
:1013B0002749096801601220234908700220264944
:1013C00008603BE02048007811280AD124482049D1
:1013D0000968016012201C49087002201E4908603B
:1013E0002CE0194800780A2812D11948437802786D
:1013F0001CA16846FFF746F96A461D4803C8FFF777
:10140000BDFD0B201049087002201349086015E04B
:101410000F4800F079FF11E00B4800780F280DDB32
:1014200009480078112809DC0B480068002805DC11
:1014300013200549087002200749086000BF1FBD3E
:1014400018000020A40000207000002038000020B8
:10145000A5000020480000207C0000204C00002057
:10146000500000202530327825303278000000000E
:101470000800002070B586B00446F74800781D28A3
:101480007BD2DFE800F0E07A0F94957AD9DAE17A3E
:101490007A7A7A7AF0EFEEED7A7AEC7A7A7A7A7A68
:1014A000EBEAE9002A2C03D10720EB4908707DE024
:1014B000232C08D10020E84908700022E74803C81F
:1014C000FFF710FE72E0312C06D1E548006800F508
:1014D0009670E349086069E0322C39D1E148006830
:1014E000032190FBF1F201FB1200401CDD49086072
:1014F00008460068012804D11422D84803C8FFF721
:10150000F1FDD8480068022804D12822D34803C836
:10151000FFF7E8FDD3480068032804D13C22CF48F8
:1015200003C8FFF7DFFD0220CF4908700920CA4930
:1015300008700220CD490860CA48CDA102686846FB
:10154000FFF7A0F86A46CC4803C8FFF717FD2DE067
:10155000392C13D1C0480078C34908700920BE490E
:101560000870C6A2C44803C8FFF708FD0120BF49A0
:1015700008600020BA49086018E0EEE1382C15D167
:10158000B5480078B84908700920B3490870BDA271
:10159000B94803C8FFF7F2FC0120B4490860B0481D
:1015A0000068052802DD0520AD490860D6E100BFCE
:1015B0002A2C01D0302C02D101F0CAFD3BE0312CA5
:1015C00006D1A748006800F59670A549086032E08A
:1015D000232C03D10020A04908702CE0392C12D113
:1015E0009D480078A049087009209B490870A3A273
:1015F000A14803C8FFF7C2FC01209C4908600020F5
:101600009749086017E0382C15D19348007896491F
:1016100008700920904908709AA2974803C8FFF7FC
:10162000ADFC0120914908608D480068052802DD65
:1016300005208B49086091E100BF2A2C02D10220CD
:10164000854908708AE100BF232C0DD10020824912
:1016500008708E49086030E076E174E1B1E068E03E
:101660005EE05CE05AE029E0352C0BD10A207A4993
:10167000087087A2804803C8FFF780FC01207B49DF
:1016800008601AE0362C0BD1142073490870002032
:101690008149086081A2784803C8FFF76FFC0CE01D
:1016A000302C0AD10E206C4908707EA2724803C803
:1016B000FFF764FC05206D4908604FE1312C0BD128
:1016C0000F206549087079A26B4803C8FFF756FCE4
:1016D0000A206649086020E0322C0BD110205E49B8
:1016E000087074A2644803C8FFF748FC0A205F49E9
:1016F000086012E0332C0BD11120574908706FA2FB
:101700005D4803C8FFF73AFC0A205849086004E026
:10171000232C02D10020504908701FE100BF00BFF8
:10172000232C05D10E204C49087000204F49086039
:1017300014E1312C33DB342C31DCA4F13105564873
:10174000056035B1012D0ED0022D16D0032D24D108
:101750001DE05C4800683C2190FBF1F63146012019
:10176000FFF704FD19E0584800683C2190FBF1F6B2
:1017700031460220FFF7FAFC0FE0544800683C2194
:1017800090FBF1F631460320FFF7F0FC05E05048EE
:1017900001680420FFF7EAFC00BF00BF10E02A2C1C
:1017A00007D13D480068401C00F003003A4908603A
:1017B00006E0232C04D10020274908703649086030
:1017C000CCE0302C47DB392C45DCA4F1300041491A
:1017D000096801EB810100EB410500263E480078D5
:1017E000012806D002280BD0032810D004281DD1D0
:1017F00014E0B42D01DC012000E00020064617E0D3
:101800003C2D01DC012000E00020064610E0782D90
:1018100001DC012000E00020064609E0B5F5FA7F72
:1018200001DC012000E00020064601E0002600BFA8
:1018300000BF7EB1B5F57A7F54DA264805600268AC
:1018400026A103A8FEF71EFF03AA0B4803C8FFF753
:1018500095FB59E046E058E07000002010000020A1
:1018600074000020A0000020880000207C000020E0
:1018700046416E202564000008000020534B49506B
:101880000000000046415354000000009800002072
:1018900072454164000000005C0000205345542D57
:1018A0002D2D0000626E643F00000000626E643106
:1018B00000000000626E643200000000626E64335B
:1018C000000000008C000020900000209400002008
:1018D000AC000020540000205800002020253033A8
:1018E000640000001FA103A8FEF7CCFE03AA1F4856
:1018F00003C8FFF743FB01201D49086009201D496B
:1019000008701A201C4908701CE02A2C10D1FFF71F
:101910000DF930B11B2017490870022014490860E6
:1019200010E01C201349087002201149086009E0EA
:10193000232C07D100201149086011490870142098
:101940000C4908700AE000BF232C05D11420094976
:10195000087000200649086000E000BF00BF06B024
:1019600070BD00004D41582100000000080000201B
:101970007C0000207000002088000020540000201F
:10198000580000201CB56846FFF740FA2148DDE901
:10199000001206C06846FFF7C1FA1F48DDE90012D1
:1019A00006C06846FFF76EFB1C48DDE9001206C062
:1019B000684600F007FF1A48DDE9001206C06846D5
:1019C00000F0E0FF1748DDE9001206C0684601F0AC
:1019D00029F81548DDE9001206C0684601F0FEFA54
:1019E0001248DDE9001206C0684601F05DFB1048B0
:1019F000DDE9001206C000200346024600900548BB
:101A000003C8FFF733FA0022044803C8FFF76AFB54
:101A10001CBD000000000020080000201000002075
:101A20001800002020000020300000203800002096
:101A3000400000201FB54FF4885000F085FE144888
:101A400001F062FC44F62060ADF800000020ADF823
:101A50000200ADF80400ADF8060042F210700290EA
:101A600000208DF80C006946094801F015FD0021A1
:101A7000074801F047FC064801F008FD0121044831
:101A800001F056FD01221146192000F0BDFC1FBDDA
:101A90000000014010B540F6014000F055FE4FF443
:101AA0008073012202211248FFF7EFFB4FF480738D
:101AB000022201210E48FFF70FFC4FF4807204212F
:101AC0000B48FFF7B3FB4FF40073012202210848D3
:101AD000FFF7DBFB4FF40073022201210448FFF7FC
:101AE000FBFB4FF4007204210148FFF79FFB10BD80
:101AF0000004024010B541F2150000F025FE00225E
:101B000009490A4800F03AF9A02300221146074883
:101B100000F0F9F94FF48061044800F051F80348EF
:101B200000F0B2F910BD0000A08601000054004092
:101B300010B540F6054000F007FE022301221946C9
:101B40000F48FFF7A2FB02231A4601210C48FFF7BA
:101B5000C3FB022204210A48FFF768FB01231A464F
:101B600002210748FFF791FB01230222194604488E
:101B7000FFF7B2FB012204210148FFF757FB10BD1C
:101B80000014024010B541F2160000F0DDFD002205
:101B900009490A4800F0F2F8A0230022114607483C
:101BA00000F0B1F94FF48061044800F009F80348EF
:101BB00000F06AF910BD0000A08601000058004046
:101BC0000A460021016821F48061114301607047D9
:101BD0000A460021016821F4006111430160704749
:101BE00037B51446002500BF40F20161009800F0AF
:101BF00064F90028F8D1009800F07CFB00BF4FF496
:101C0000A061009800F059F90028F8D09DF8041060
:101C10006FF00102009800F06CF909E0681C0546BD
:101C20001649884204D9009800F069FB00203EBDA7
:101C300040F20151009800F040F90028EED040F247
:101C40000151009800F025F900BF40F207510098BB
:101C500000F033F90128F8D12146009800F004F98A
:101C600000BF40F20251009800F027F90028F8D098
:101C7000009800F044FB0120D9E70000A086010095
:101C80007FB515461C46002600BF40F20161009852
:101C900000F013F90028F8D1009800F02BFB00BFEA
:101CA0004FF4A061009800F008F90028F8D09DF8E2
:101CB00004100122009800F01CF90AE0701C06468E
:101CC0002D49884205D9009800F019FB002004B086
:101CD00070BD40F20151009800F0EFF80028EDD0FF
:101CE00040F20151009800F0D4F8022C03DC0021EE
:101CF0000098FFF765FF022C03D1A1020098FFF7BF
:101D000067FF012C02D1009800F0F9FA27E0032CBC
:101D10000BD100BF40F20251009800F0CEF800282D
:101D2000F8D000210098FFF74BFF022C0AD100BF2A
:101D300040F20251009800F0C0F80028F8D0009856
:101D400000F0DDFA40F20651009800F0B6F830B12C
:101D5000009800F085F828706D1C601EC4B2002C3D
:101D6000D5D14FF480610098FFF72AFF0021009839
:101D7000FFF72EFF0120AAE7A08601002DE9F05F02
:101D800004460E469346022000F04CFC07463148BC
:101D9000B7FBF0F9B9F13C0F01D34FF03C09D4F88F
:101DA00004A02AF03F0A4AEA090AC4F804A02A4813
:101DB00086421ED82748B7FBF0F000F10108B8F1C1
:101DC0003C0F02D33C20206207E0B8F1020F02D89A
:101DD0000220206201E0C4F820807000B7FBF0F51B
:101DE000042D00D20425E069C5F30B010843E0612E
:101DF0002EE01A4886422BD84FF4967009FB00F06B
:101E00004FF47A71B0FBF1F0401C2062BBF1000F7F
:101E100008D106EB4600B7FBF0F5E06920F48040FE
:101E2000E06109E006EBC60000EB0610B7FBF0F539
:101E3000E06940F48040E061C5F30B0008B945F06B
:101E40000105E06940F40040E061E0692843E06199
:101E5000BDE8F09F40420F00A0860100801A0600F6
:101E600001460869C0B27047CAB2026170470021DA
:101E700007E0002200E0521C49F640439A42FAD3A0
:101E8000491C8142F5D37047016841F001010160AE
:101E9000704710B540F20152914202D14269826905
:101EA0000AE000EB9112126801F01F040123A34025
:101EB0009A4300EB91131A6010BD10B5024602EB75
:101EC0009110006801F01F040123A340184008B1DD
:101ED000012010BD0020FCE710B5FFF7DBFDFFF788
:101EE00009FEFFF725FEFFF74DFE0120FFF7BFFFBC
:101EF00010BD12F1020F02D121F0010101E041F009
:101F000001010161704730B50C460021016821F0E4
:101F1000020121430160C3F3090342EA030585601E
:101F200030BD00007FB514461D46002600BF40F2BC
:101F300001610098FFF7C1FF0028F8D1009800F078
:101F4000D9F900BF4FF4A0610098FFF7B6FF002851
:101F5000F8D09DF804106FF001020098FFF7C9FF58
:101F60000AE0701C06462249884205D9009800F014
:101F7000C6F9002004B070BD40F201510098FFF78F
:101F80009CFF0028EDD040F201510098FFF781FF3F
:101F900000BF40F207510098FFF78FFF0128F8D1EA
:101FA00021460098FFF760FF00BF40F20251009801
:101FB000FFF783FF0028F8D00220FFF758FF00BF8B
:101FC00040F207510098FFF778FF0128F8D1294621
:101FD0000098FFF749FF00BF40F202510098FFF759
:101FE0006CFF0028F8D0009800F089F90120C1E7C3
:101FF000A08601002DE9FF4116461D460A9C0027D8
:1020000000BF40F201610098FFF757FF0028F8D1A8
:10201000009800F06FF900BF4FF4A0610098FFF73F
:102020004CFF0028F8D09DF804106FF001020098D2
:10203000FFF75FFF0BE0781C07464C49884206D942
:10204000009800F05CF9002004B0BDE8F08140F297
:1020500001510098FFF731FF0028ECD040F2015108
:102060000098FFF716FF00BF40F207510098FFF7F6
:1020700024FF0128F8D131460098FFF7F5FE00BF94
:1020800040F202510098FFF718FF0028F8D000989E
:1020900000F030F900BF4FF4A0610098FFF70DFF8A
:1020A0000028F8D09DF8041001220098FFF721FFC6
:1020B00009E0781C07462D49884204D9009800F0B1
:1020C0001EF90020C0E740F201510098FFF7F5FE2D
:1020D0000028EED040F201510098FFF7DAFE022C02
:1020E00003DC00210098FFF76BFD022C03D1A10255
:1020F0000098FFF76DFD012C02D1009800F0FFF869
:1021000027E0032C0BD100BF40F202510098FFF7EB
:10211000D4FE0028F8D000210098FFF751FD022CD2
:102120000AD100BF40F202510098FFF7C6FE002816
:10213000F8D0009800F0E3F840F206510098FFF75D
:10214000BCFE30B10098FFF78BFE28706D1C601E3E
:10215000C4B2002CD5D14FF480610098FFF730FD58
:1021600000210098FFF734FD01206DE7A0860100F3
:102170002DE9FF4115461C460A9E002700BF40F28C
:1021800001610098FFF799FE0028F8D1009800F04F
:10219000B1F800BF4FF4A0610098FFF78EFE002851
:1021A000F8D09DF804106FF001020098FFF7A1FE2F
:1021B0000BE0781C07462549884206D9009800F0B4
:1021C0009EF8002004B0BDE8F08140F20151009873
:1021D000FFF773FE0028ECD040F201510098FFF7A2
:1021E00058FE00BF40F207510098FFF766FE012835
:1021F000F8D129460098FFF737FE00BF40F20251A0
:102200000098FFF75AFE0028F8D014E000BF40F213
:1022100007510098FFF751FE0128F8D12178009866
:10222000FFF722FE00BF40F202510098FFF745FE83
:102230000028F8D0641C301EA6F10101CEB2E5D111
:10224000009800F05CF80120BCE70000A0860100C7
:102250002DE9FC4104460D461646002000900190F1
:1022600000958DF80460002700BF40F20161284608
:10227000FFF723FE0028F8D1284600F03BF800BF06
:102280004FF4A0612846FFF718FE0028F8D06FF041
:10229000010231462846FFF72CFE10E0781C074665
:1022A000134988420BD9009800F029F800208DF8D6
:1022B0000500DDE90001C4E90001BDE8FC8140F250
:1022C00001512846FFF7F9FD0028E7D040F20151FF
:1022D0000098FFF7DEFD284600F011F801208DF888
:1022E0000500DDE90001C4E9000100BFE5E70000E9
:1022F000A0860100016841F48071016070470168A7
:1023000041F400710160704710B50446042225496C
:102310002046FDF782FF88B940F2DC502249086070
:102320004FF49670214908604FF4617020490860AD
:1023300020A2224803C8FEF721FE2BE004222049F8
:102340002046FDF76AFF78B940F6B83016490860B4
:102350004FF41670154908601549086019A217480E
:1023600003C8FEF70BFE15E0042218492046FDF7CE
:1023700054FF18B908201649087010BD15A20F485F
:1023800003C8FEF7FBFD0120134908600C2010492B
:102390000870F2E701200E49087002200E4908601B
:1023A00000BFEAE7480000208C00002090000020D9
:1023B00094000020537464590000000008000020BD
:1023C0004C000020644545500000000050000020F3
:1023D00070000020457272007C000020FFF7D2FAE6
:1023E000FFF728FB0DE0FEF799FF00F079F80548AC
:1023F000007830B100200349087001F043FA01F081
:10240000ABF8F0E7780000202DE9F04103460D46D7
:10241000164600240027A0462A48006800F4E06021
:10242000B0F5E06F03D100BF4FF0040830E025485D
:10243000006800F4E060B0F5C06F03D101274FF0F1
:10244000030825E01F48006800F4E060B0F5A06FC5
:1024500002D10227B8461BE01A48006800F4E06089
:10246000B0F5806F03D103274FF0010810E0154845
:10247000006800F4E060B0F5407F03D104274FF01E
:10248000000805E04FF4A06000F020F80227B846ED
:10249000C7F1040005FA00F4C8F104010F20C84098
:1024A0003040044324010848C45403F01F010120B4
:1024B00088405911890001F1E021C1F80001BDE80F
:1024C000F08100000CED00E000E400E0024901436F
:1024D000024A1160704700000000FA050CED00E0B0
:1024E00000B587B04948007802280DD1484803C894
:1024F00000F00AFE80BB06204449087000224548CF
:1025000003C8FEF7EFFD27E040480078062823D1F6
:102510003F4803C800F0F8FD01281DD102203B49C7
:1025200008703D480068012804D11422394803C8C6
:10253000FEF7D8FD38480068022804D12822354823
:1025400003C8FEF7CFFD34480068032804D13C22BD
:10255000304803C8FEF7C6FD2C480078022803D097
:102560002A48007807284ED12C480068002804DD4E
:102570002A480068401E29490860294806C868465C
:1025800000F080FA9DED020AB0EEC00AF2EE040AF5
:10259000B4EEE00AF1EE10FA34DD2048006888BBA2
:1025A0000A201E49086019480078022808D107202F
:1025B000164908700022174803C8FEF793FD21E072
:1025C0001248007807281DD10220104908701248CF
:1025D0000068012804D114220E4803C8FEF782FDCA
:1025E0000D480068022804D128220A4803C8FEF7D3
:1025F00079FD09480068032804D13C22054803C836
:10260000FEF770FD00BF07B000BD000070000020A5
:102610004000002010000020A000002084000020C6
:10262000300000202DE9F04F8CB0064600200A90C3
:102630003EA090E8004CC068CDE905BECDF810A0E2
:1026400007900FF2EC0ADAE9000ACDE9020A0FF26C
:10265000E00ADAE9000ACDE9000A38480068C0F368
:1026600081000B900B9820B1012804D0022828D1BA
:1026700003E0334927E0334925E03048001F006874
:1026800000F03F072D48001F0068C0F3881C2B484E
:10269000001F0068C0F30140401C4FEA4009274872
:1026A000001F006800F48008B8F5800F01D1254BA9
:1026B00000E0234BB3FBF7F000FB0CF0B0FBF9F1AB
:1026C00001E01F4900BF00BF1C480068C0F30314AD
:1026D00004A8055D21FA05F218480068C0F38224B9
:1026E00002A8055D22FA05F0099014480068C0F3BD
:1026F00042341DF8045022FA05F0089036B1012E3C
:1027000006D0022E06D0032E0AD106E00A9108E078
:102710000A9206E009980A9003E008980A9000E0FF
:1027200000BF00BF0A980CB0BDE8F08F00000000A9
:1027300000000000010203040607080908380240EF
:102740000024F40040787D01074A02EB9011D1F893
:10275000001800F01F0301229A401143024B03EBC3
:102760009012C2F80018704700300240074A02EB8E
:102770009011D1F8001800F01F0301229A409143F4
:10278000024B03EB9012C2F8001870470030024071
:10279000074A02EB9011D1F8001800F01F03012244
:1027A0009A401143024B03EB9012C2F80018704795
:1027B0000030024013B52122DDE90001FFF710FAD5
:1027C0001CBD00007FB50446FFF786FB00251DE019
:1027D000002618E01148825D114850F8251068461F
:1027E000FFF736FDDDE90001CDE902019DF80D009E
:1027F00040B1DDE90201FFF7DDFFDDE90201C4E9D7
:1028000000017FBD761C042EE4D36D1C022DDFD3A6
:10281000DDE90201C4E9000100BFF2E7283B00083E
:10282000203B000803B583B00020019002900620F1
:1028300001AB40220090DDE90301FFF7DBFB9DF8CF
:10284000040000F0010010B1312005B000BD9DF87A
:10285000060000F0010008B13220F6E79DF80800FC
:1028600000F0010008B13320EFE79DF8040000F00C
:10287000020008B13420E8E79DF8060000F00200ED
:1028800008B13520E1E79DF8080000F0020008B12A
:102890003620DAE79DF8040000F0040008B1372084
:1028A000D3E79DF8060000F0040008B13820CCE71B
:1028B0009DF8080000F0040008B13920C5E79DF834
:1028C000040000F0080008B12A20BEE79DF80600C9
:1028D00000F0080008B13020B7E79DF8080000F0CC
:1028E000080008B12320B0E70020AEE713B50122AD
:1028F000DDE90001FFF774F91CBD13B580236B22DD
:10290000DDE90001FFF70EFB0A20FFF7B0FA012313
:102910006B22DDE90001FFF705FB0A20FFF7A7FAAC
:1029200000231922DDE90001FFF7FCFA18231B221E
:10293000DDE90001FFF7F6FA18231C22DDE90001AA
:10294000FFF7F0FA04231A22DDE90001FFF7EAFAA3
:1029500004231D22DDE90001FFF7E4FA00236C22C5
:10296000DDE90001FFF7DEFA00231E22DDE90001A8
:10297000FFF7D8FA00232322DDE90001FFF7D2FA9E
:102980001CBD00007FB50446FFF7A6FA00251DE038
:10299000002618E01148825D114850F8251068465D
:1029A000FFF756FCDDE90001CDE902019DF80D00BD
:1029B00040B1DDE90201FFF799FFDDE90201C4E959
:1029C00000017FBD761C022EE4D36D1C022DDFD3E7
:1029D000DDE90201C4E9000100BFF2E7343B000871
:1029E0002C3B000813B582B000240122DDE902016E
:1029F000FFF7F6F81022DDE90201FFF7F1F80A20EF
:102A0000FFF735FA022301AADDE90201FFF738F9E1
:102A10009DF805009DF8041000EB0124204604B049
:102A200010BD00007FB50446FFF756FA00251DE0F3
:102A3000002618E01148825D114850F825106846BC
:102A4000FFF706FCDDE90001CDE902019DF80D006C
:102A500040B1DDE90201FFF750FFDDE90201C4E901
:102A600000017FBD761C022EE4D36D1C022DDFD346
:102A7000DDE90201C4E9000100BFF2E7383B0008CC
:102A80002C3B00082DE9F74F2DED048B8CB004464C
:102A9000002001900290039004900E2001AB3B2295
:102AA0000090DDE91101FFF7A5FA9DF805009DF8FA
:102AB000041040EA012005B29DF807009DF80610B9
:102AC00040EA012006B29DF809009DF8081040EA8E
:102AD000012007B29DF80B009DF80A1040EA012082
:102AE0000FFA80FA9DF80D009DF80C1040EA0120C5
:102AF0000FFA80F89DF80F009DF80E1040EA0120B3
:102B00000FFA80F99DF811009DF8101040EA01209D
:102B10000FFA80FB2846FDF7FFFB9FED310B53ECCE
:102B2000102BFDF787FBFDF708FC05903046FDF7FD
:102B3000F3FB9FED2B0B53EC102BFDF77BFBFDF70D
:102B4000FCFB06903846FDF7E7FB9FED250B53ECA9
:102B5000102BFDF76FFBFDF7F0FB0790AAF11900B2
:102B600000EB8000400040F6C44190FBF1F000EE25
:102B7000100AB8EEC00AF3EE090A30EE200A8DED15
:102B80000B0A4046FDF7C8FB9FED170B53EC102BCB
:102B9000FDF750FBFDF7D1FB08904846FDF7BCFB65
:102BA0009FED110B53EC102BFDF744FBFDF7C5FB1C
:102BB00009905846FDF7B0FB9FED0B0B53EC102B23
:102BC000FDF738FBFDF7B9FB0A901C2205A920464A
:102BD000FDF70AFB0CB0BDEC048BBDE8FE8F0000D6
:102BE000344C4C9B9A99733F08AC1C5A643BAF3FE2
:102BF00013B503231422DDE9000100F018F81CBD11
:102C000003B583B0012002AB14220090DDE903017B
:102C1000FFF7F0F99DF8080000F0030028B903233E
:102C20001422DDE9030100F01BF805B000BD3FB53B
:102C300083B015461C4600200290012002AB2A46B4
:102C40000090DDE90301FFF7D5F99DF8080020EABF
:102C500004032A46DDE90301FFF764F907B030BD3C
:102C60003FB583B015461C4600200290012002AB00
:102C70002A460090DDE90301FFF7BCF99DF8080042
:102C800040EA04032A46DDE90301FFF74BF907B0E8
:102C900030BD2DE9FF4F85B014469846DDE9129A04
:102CA000149E0220049000274FF0000B0C2C05D03E
:102CB0000E2C07D112274FF0100B04E077274FF0AE
:102CC000300B00E000BF00BF47F080030222DDE9C7
:102CD0000501FFF727F980230422DDE90501FFF74D
:102CE000A6FF00230122DDE90501FFF71BF9802380
:102CF0000A22DDE90501FFF7B3FF43460922CDF8BB
:102D00000090DDE90501FFF733FA23460122DDE9F2
:102D10000501FFF707F90C2C05D180230D22DDE911
:102D20000501FFF79DFF4FF47A7500BF012002AB4C
:102D300004220090DDE90501FFF75CF9681E85B209
:102D400055B19DF8080000F0010028B99DF8080071
:102D500000EA0B000028E9D080230D22DDE90501FF
:102D6000FFF765FF002D54D0012002AB0622009032
:102D7000DDE90501FFF73EF99DF8080000F01B00B2
:102D8000002844D104909DF80800384000F001006C
:102D900008B1012004900C2C3BD1012002AB0A2287
:102DA0000090DDE90501FFF725F9012003AB0C22B6
:102DB0000090DDE90501FFF71DF99DF80C0000F01A
:102DC000070003909DF80C0040B19DF80800401EDC
:102DD0009DF80C1001EBC000308003E09DF8080066
:102DE000C00030809DF8080008B9012002909DF8CD
:102DF0000800122801DD122002909DF808005346B9
:102E000009220090DDE90501FFF7F4F801E0022056
:102E1000049080230C22DDE90501FFF721FF002348
:102E20000122DDE90501FFF77DF8049809B0BDE84E
:102E3000F08F13B5DDE9000100F011F8DDE90001C4
:102E4000FFF7D6FE0A20FFF712F8DDE90001FFF7D1
:102E5000D7FE4122DDE9000100F03CF81CBD13B5AE
:102E60000F230122DDE90001FFF75CF80A20FEF7DD
:102E7000FEFF3D231122DDE90001FFF753F81E2379
:102E80002D22DDE90001FFF74DF800232C22DDE9BA
:102E90000001FFF747F88D232A22DDE90001FFF743
:102EA00041F83E232B22DDE90001FFF73BF84023E8
:102EB0001522DDE90001FFF735F880233322DDE933
:102EC0000001FFF7B4FE40231522DDE90001FFF702
:102ED00029F81CBD37B51446412C37D108231A46B2
:102EE000DDE90001FFF71EF83D231122DDE90001B5
:102EF000FFF718F886231722DDE90001FFF712F823
:102F00007F232622DDE90001FFF70CF81E232D2286
:102F1000DDE90001FFF706F800232C22DDE90001BE
:102F2000FFF700F88D232A22DDE90001FEF7FAFF02
:102F30003E232B22DDE90001FEF7F4FF0A20FEF715
:102F400096FFDDE90001FFF75BFE01E002203EBDD8
:102F50000020FCE7F7B58AB01546002708231A467B
:102F6000DDE90A01FFF763FE00230D22DDE90A0116
:102F7000FEF7D8FF80230E22DDE90A01FFF757FE96
:102F800093208DF8100020208DF8110009A804A9C5
:102F9000022204ABCDE9002102900C22DDE90A01F6
:102FA000FFF777FE064686B9002407E004A8005D17
:102FB000285504A8005D4740601CC4B2042CF5DB12
:102FC00004A8005DB84200D0022680230E22DDE96D
:102FD0000A01FFF745FE30460DB0F0BD7FB504464F
:102FE000FEF77AFF00251DE0002618E01148825DFB
:102FF000114850F825106846FFF72AF9DDE900016D
:10300000CDE902019DF80D0040B1DDE90201FFF7B5
:1030100010FFDDE90201C4E900017FBD761C042E2A
:10302000E4D36D1C022DDFD3DDE90201C4E9000108
:1030300000BFF2E7443B00083C3B00087FB58AB084
:1030400015461C4608231A46DDE90A01FFF7EFFD85
:1030500007230D22DDE90A01FEF764FF0323142292
:10306000DDE90A01FFF7FCFD8DF8105009A804A95D
:10307000012204ABCDE9002102900C22DDE90A0116
:10308000FFF707FE064656B9BDF82400102806D102
:103090009DF8100020709DF81100607000E002267D
:1030A00030460EB070BD00007FB50446FEF714FF39
:1030B00000251DE0002618E01148825D114850F8F7
:1030C00025106846FFF7C4F8DDE90001CDE90201EB
:1030D0009DF80D0040B1DDE9020100F02AF8DDE9BC
:1030E0000201C4E900017FBD761C042EE4D36D1CEF
:1030F000022DDFD3DDE90201C4E9000100BFF2E7E0
:10310000503B0008483B000803B583B00020029004
:10311000012002AB00220090DDE90301FEF76AFF07
:103120009DF8080000F0010002909DF8080005B02D
:1031300000BD13B500230222DDE90001FEF7F2FE17
:10314000FF230322DDE90001FEF7ECFE1CBD0000B9
:1031500010B5144803C8FFF745FC04461248006840
:1031600084420ED211A2134803C8FDF707FF0D20B9
:1031700011490870062011490860012010490860B3
:103180000EE002200C4908700E4800680E490860E5
:1031900014220E4803C8FDF7A5FF01200C49086062
:1031A00010BD000020000020AC0000204C497445F8
:1031B000204C6F00080000207000002080000020DC
:1031C0007C0000208C0000207400002010000020F3
:1031D000A000002010B503200549087005480068CC
:1031E000054908600022054803C8FDF77BFF10BDB4
:1031F00070000020900000207400002010000020CB
:10320000002000213A4A126842F48032384B1A609A
:1032100000BF401C364A126802F4003119B94FF65B
:10322000FF729042F5D1324A126802F400320AB9B4
:1032300000BFFEE72E4A4032126842F080522C4B0B
:1032400040331A602B4A126842F44042294B1A60FC
:10325000274A08321268264B08331A601A46126849
:1032600042F400421A601A46126842F4A0521A60F0
:10327000214A1B1F1A601A1F126842F080721B1F1E
:103280001A6000BF1A4A126802F00072002AF9D0D0
:10329000184A126842F48032164B1A6000BF154A71
:1032A000526802F48032002AF9D0124A126842F4BD
:1032B0000032104B1A6000BF0E4A526802F400320E
:1032C000002AF9D00A4A0832126822F00302084B99
:1032D00008331A601A46126842F002021A6000BFF0
:1032E000034A0832126802F00802002AF8D0704738
:1032F00000380240007000401964400910B5FFF723
:103300007FFF10BD4162704710B504465C49601AEA
:103310008C426FD019DC5B49A4EB01008C424ED08B
:1033200009DCB4F1804F2ED057482044A0B3B0F54B
:10333000806F72D13AE0B0F5806F49D0B0F5006F80
:103340004FD0B0F5406FF4D17BE0B0F5923F5BD049
:1033500009DCB0F5806F73D0B0F5644F0AD0B0F5DA
:10336000684F5AD147E0B0F5943F57D0B0F5963F3B
:1033700053D15CE04FF41060FFF70AFA4FF410608D
:10338000FFF7F4F979E04FF40060FFF701FA4FF42A
:103390000060FFF7EBF970E0FFE740F60100FFF790
:1033A000F7F940F60100FFF7E1F966E040F60200A8
:1033B000FFF7EEF940F60200FFF7D8F95DE040F6BE
:1033C0000300FFF7E5F940F60300FFF7CFF954E0FB
:1033D00040F60400FFF7DCF940F60400FFF7C6F9F9
:1033E0004BE040F60500FFF7D3F940F60500FFF784
:1033F000BDF942E02EE040F60110FFF7C9F940F6B2
:103400000110FFF7B3F938E04FF41160FFF7C0F98E
:103410004FF41160FFF7AAF92FE02DE040F61110EC
:10342000FFF7B6F940F61110FFF7A0F925E040F6D6
:103430001210FFF7ADF940F61210FFF797F91CE0F4
:1034400011E040F60600FFF7A3F940F60600FFF78B
:103450008DF912E040F60700FFF79AF940F60700F1
:10346000FFF784F909E040F60800FFF791F940F60C
:103470000800FFF77BF900E000BF00BF10BD0000AF
:10348000001C0040000C004000FCFFBF016841F040
:1034900001010160704700000A8882621D4A904263
:1034A0000ED0B0F1804F0BD01B4A904208D01B4A7F
:1034B000904205D01A4A904202D01A4A90420BD14B
:1034C000026822F07002026002684B881A430260B0
:1034D00002688B881A4302608A68C262124A90426C
:1034E0000AD0124A904207D0026822F44072026069
:1034F0000268CB881A430260064A904202D0094A09
:10350000904201D10A7B0263426942F001024261AA
:103510007047000000000140000400400008004027
:10352000000C004000040140001000400014004066
:10353000C2680A43C2607047CA43026170470246CC
:10354000D06800EA01031069084010B10BB10120F6
:1035500070470020FCE700007FB5AA4800781D28CE
:103560001DD2DFE800F00F1C1D3C5B1C7A7B89F547
:103570009D1C1C1CA6B4C2D0DEF6F3F2F1F0EF1CC9
:10358000EEEDEC0005200346024600909E4803C87D
:10359000FDF76CFC9DA29F4803C8FDF7EFFC2FE1EF
:1035A0000020642302460090974803C8FDF75EFCA4
:1035B000994800683C2190FBF1F201FB1204964807
:1035C000006890FBF1F523462A4694A101A8FDF777
:1035D00059F801AA8F4803C8FDF7D0FC10E1642018
:1035E00000231A460090884803C8FDF73FFC8A482C
:1035F00000683C2190FBF1F201FB12048648006850
:1036000090FBF1F523462A4684A101A8FDF73AF87C
:1036100001AA804803C8FDF7B1FCF1E06420002353
:1036200002460090784803C8FDF720FC7A480068FD
:103630003C2190FBF1F201FB12047748006890FBFB
:10364000F1F523462A4675A101A8FDF71BF801AA4A
:10365000704803C8FDF792FCD2E000BF002064234D
:103660001A460090684803C8FDF700FC6EA269483E
:1036700003C8FDF783FCC3E06420034602460090C4
:10368000614803C8FDF7F2FB69486AA1026801A816
:10369000FCF7F8FF01AA5F4803C8FDF76FFCAFE035
:1036A0006420034600220090574803C8FDF7DEFB64
:1036B000A6E00020322364220090534803C8FDF79F
:1036C000D5FB5FA2534803C8FDF758FC98E00020E3
:1036D0003223642200904C4803C8FDF7C7FB5AA26E
:1036E0004C4803C8FDF74AFC8AE0002032236422DC
:1036F0000090454803C8FDF7B9FB55A2454803C8EB
:10370000FDF73CFC7CE000203223642200903E4820
:1037100003C8FDF7ABFB50A23E4803C8FDF72EFCE3
:103720006EE00020642302460090374803C8FDF78E
:103730009DFB4BA2374803C8FDF720FC60E051E039
:1037400042E038E036E034E032E030E018E000E01B
:103750000DE000200346642200902B4803C8FDF7CB
:1037600085FB41A22B4803C8FDF708FC48E0002078
:1037700064231A460090244803C8FDF777FB3FE016
:1037800064200023322200901F4803C8FDF76EFB1F
:1037900037483849096850F8212037A101A8FCF7BB
:1037A00071FF01AA1B4803C8FDF7E8FB28E000BF32
:1037B00000BF00BF24E000203223642200901248A2
:1037C00003C8FDF753FB1BE0002064230246009072
:1037D0000D4803C8FDF74AFB21A20E4803C8FDF7B8
:1037E000CDFB0DE00020034664220090064803C88C
:1037F000FDF73CFB21A2074803C8FDF7BFFB00BF54
:1038000000BF7FBD70000020000000202D2D2D2D59
:103810000000000008000020740000202530326401
:103820002E25303264000000504155530000000046
:1038300098000020646F6E4525303264000000005F
:10384000626E643F00000000626E643100000000A0
:10385000626E643200000000626E6433000000009B
:10386000204F4B20000000004661696C0000000002
:10387000600000205C000020257300004641494C98
:10388000000000000EB57B4800780C2861D009DCF0
:103890000C287DD2DFE800F0EAA7153D3EEAEAEA0F
:1038A000EA34EA45132874D006DC0D2859D00E28D6
:1038B00070D012286CD1A0E01B286CD01C28F9D144
:1038C000C4E06D480068002819DC6C480068401CA2
:1038D0006A4908606A480068401C694908600846EF
:1038E0000068042809DB0020086066480068624917
:1038F000086004205F49087001E0FFF76BFCB6E048
:1039000061480068002803DC604800785949087065
:10391000ADE000BF58480068002801DCFFF718FC44
:10392000A5E059480068002812DC5948C37882781D
:1039300058A16846FCF7A6FE6A46594803C8FDF739
:103940001DFB0C204B49087002204F49086000BF46
:103950008DE04D480068002802DC002045490870D1
:1039600085E049480068002829DC4E4800680028A6
:1039700025DD4C49086800EBD0714910A0EB4101EE
:1039800069B9002064231A460090474803C803E041
:103990006CE04AE041E058E0FDF768FA07E00020FB
:1039A000034602460090404803C8FDF75FFA3D48D1
:1039B0000068401E3B4908600120334908603948CF
:1039C000006800280EDC02202A4908703748006889
:1039D000294908601422364803C8FDF783FB0120FB
:1039E0003449086043E028480068002804DC0020CF
:1039F00023490860FFF7ACFB39E023480068002842
:103A00000ADC0020642302460090274803C8FDF723
:103A10002DFA0E201749087029E01B48006800287D
:103A200002DC00201349087021E0174800680028D4
:103A30000ADC00200346642200901B4803C8FDF7FF
:103A400015FA0E200B49087011E000BF0E480068FF
:103A500000280ADC14200749087064200023322261
:103A60000090114803C8FDF701FA00E000BF00BF55
:103A70000EBD00007000002074000020980000209F
:103A80009C000020940000207C0000208800002082
:103A9000A500002025303278253032780000000063
:103AA0000800002080000020000000208C00002082
:103AB00010000020A00000200054004000580040EA
:103AC000C0C2C4C6E0E2E4E6F8013000D8027802E1
:103AD00030036803E8033800F8037803B803E00311
:103AE000C801F002C8038803E801B0032000700099
:103AF000D003C001A802A002E002980338038002AC
:103B00002003C003F00110035003B001700348020A
:103B1000000200000054004000580040C8CACCCE4B
:103B20000054004000580040E8EAECEE0054004029
:103B30000058004046B8888AD0D2000000540040A7
:103B40000058004050525456005400400058004065
:103B5000303234364C6752540000000046637354D0
:103B60000000000052737454000000004C5F4C745D
:103B700000000000943B000800000020B00000009E
:103B8000AC060008443C0008B0000020000400001F
:103B9000BC0600080000000000000000000000005B
:103BA0000000000000000000000000000000000015
:103BB0000000000000000000000000000000000005
:103BC00000000000000000000000000000000000F5
:103BD000000000000000000000000000FE1F7FC287
:103BE000B3355EAC9CADBECF00000000000000000D
:103BF000000000005C3B0008643B0008543B0008E8
:103C00006C3B000800000000000000000000000005
:103C100000000000000000000000000000000000A4
:103C2000DC0500002C0100008403000000000000FF
:103C30000000000001000000000000000000000083
:043C400096000000EA
:04000005080001AD41
:00000001FF
