:020000040800F2
:1000000018040020C5010008CD010008CF01000838
:10001000D1010008D3010008D5010008000000004C
:10002000000000000000000000000000D7010008F0
:10003000D901000800000000DB010008DD01000814
:10004000DF010008DF010008DF010008DF01000810
:10005000DF010008DF010008DF010008DF01000800
:10006000DF010008DF010008DF010008DF010008F0
:10007000DF010008DF010008DF010008DF010008E0
:10008000DF010008DF010008DF010008DF010008D0
:10009000DF010008DF010008DF010008DF010008C0
:1000A000DF0100081D030008DF010008DF01000870
:1000B000DF010008DF010008DF010008DF010008A0
:1000C000DF010008DF010008DF010008DF01000890
:1000D000DF010008DF010008DF010008DF01000880
:1000E000DF010008DF010008DF010008DF01000870
:1000F000DF010008DF010008DF010008DF01000860
:10010000DF010008DF010008DF010008DF0100084F
:10011000DF010008DF010008DF010008DF0100083F
:10012000DF010008DF010008DF010008DF0100082F
:10013000DF010008DF010008DF010008DF0100081F
:10014000DF010008DF010008DF010008DF0100080F
:10015000DF010008DF010008DF010008DF010008FF
:10016000DF010008DF010008DF010008DF010008EF
:10017000DF010008DF010008DF01000800000000C7
:10018000DF010008DF010008DF010008DF010008CF
:10019000DF010008DF010008DF01000800000000A7
:1001A000DF010008DF010008DF010008DFF810D0E0
:1001B00000F038F800480047A9100008AFF30080AD
:1001C000180400200648804706480047FEE7FEE77F
:1001D000FEE7FEE7FEE7FEE7FEE7FEE7FEE7FEE7F7
:1001E00049020008AD010008421C10F8011B00295B
:1001F000FBD1801A704730B50B4601460020202203
:10020000012409E021FA02F59D4205D303FA02F523
:10021000491B04FA02F52844151EA2F10102F1DC83
:1002200030BD0000064C074D06E0E06840F00103D9
:1002300094E8070098471034AC42F6D3FFF7BAFFB2
:10024000341700085417000808B53048006840F417
:1002500070002E4908602E48006840F001002C49CB
:10026000086000BF2A48006800F002000028F9D0AA
:1002700000BF27480830006840F08000244908315A
:1002800008600020009002E00098401C0090009858
:100290005028F9D31E480830006840F090001C49EF
:1002A000083108600020009002E00098401C009097
:1002B00000985028F9D300BF15480830006820F096
:1002C00003001349083108601148006811490840CB
:1002D0000F4908600846006820F48020086000206C
:1002E0000B490831086000BF094808300068002049
:1002F0000028F9D108480649091D08600020044972
:100300000C31086001F0B2F808BD000088ED00E093
:1003100000380240FFFFF6FE1030002410B5012126
:10032000094801F0C4F968B101F0CEF90748006846
:10033000401C064908600120054908700121024857
:1003400001F0B2F910BD00000000014010000020D3
:10035000140000200FB4084B10B504A902AA03989A
:1003600000F01CF8044602A9002000F0B8F920466D
:1003700010BC5DF814FB0000DF06000802E008C8AE
:10038000121F08C1002AFAD170477047002001E00F
:1003900001C1121F002AFBD1704700002DE9FF4F59
:1003A0008BB088460546002606E025280BD0DDE9FF
:1003B0000D1290476D1C761C28780028F5D10FB0DF
:1003C0003046BDE8F08F0024A146A2460122AE4986
:1003D00000E0044315F8013F203B02FA03F0084215
:1003E000F7D128782A2810D06FF02F022878A0F1B2
:1003F0003001092915D809EB890102EB410144F0CC
:10040000020400EB01096D1CF0E758F8041B5FEAD9
:10041000010903D544F40054C9F1000944F0020471
:100420006D1C28782E2817D115F8010F44F004040C
:100430002A280ED06FF02F022878A0F13001092968
:100440000AD80AEB8A0102EB410100EB010A6D1C9C
:10045000F2E758F804AB6D1C28786C280FD006DC46
:100460004C2817D068280DD06A2814D104E07428CD
:1004700010D07A280FD10DE044F400140AE044F4BF
:10048000801401E044F440146978814202D104F5FB
:1004900080146D1C6D1C2878692865D006DC002846
:1004A0008DD0632827D0642806D15DE06E2808D05F
:1004B00073282AD0752877D0DDE90D129047761C75
:1004C000E0E0C4F30250022809D003280DD0D8F888
:1004D000001004280DD00E6008F10408D2E0D8F80E
:1004E0000010F217C1E90062F6E7D8F800100E809C
:1004F000F2E70E70F0E718F8041B8DF800100020EA
:100500008DF80100EB46012003E058F804BB4FF0E2
:10051000FF3061074FF0000701D40AE07F1C574508
:100520000DDA8742FADB1BF807100029F6D106E046
:100530007F1C8742FCDB1BF807100029F8D1DDE99E
:100540000D23A9EB07008146214600F0B1F83044A5
:10055000C61904E0DDE90D121BF8010B90477F1E60
:10056000F8D22146484688E058F8040BC4F30251FB
:100570004FF00A0B032900D100B2042900D140B288
:10058000002802DA40422D2102E0210505D52B2169
:100590008DF82410012104E006E0E10710D02021AD
:1005A000F6E708AF089113E058F8040BC4F30251C2
:1005B0004FF00A0B032900D180B2042900D1C0B248
:1005C0000021EEE75946FFF716FE303107F8011D0E
:1005D0000028F7D1ADEB070000F1200B600702D532
:1005E00024F4803401E04FF0010ADA4502DDAAEB81
:1005F0000B0000E00020824600EB0B01089801444C
:10060000A9EB01000A90E00306D4DDE90D232146A1
:100610000A9800F04DF806444FF0000908E009A9D7
:1006200011F80900DDE90D12904709F10109761C66
:1006300008998945F3DBE0030CD5DDE90D2321465C
:100640000A9800F035F8064404E0DDE90D12302088
:100650009047761CBAF10001AAF1010AF5DC05E029
:10066000DDE90D1217F8010B9047761CBBF1000174
:10067000ABF1010BF4DC0A982146DDE90D2300F013
:1006800005F806446D1C97E6092801002DE9F041A4
:10069000044600251E461746880404D405E0394662
:1006A0002020B0476D1C641EF9D52846BDE8F081B6
:1006B0002DE9F041044600251E469046C80301D5A9
:1006C000302700E02027880404D505E0414638465D
:1006D000B0476D1C641EF9D52846BDE8F0810A6854
:1006E000531C0B60107070477FB582B015461C46D6
:1006F0000A9E304810F814008DF804002D4800EBD5
:10070000440040788DF805002EB19DF80500001DCD
:10071000C0B28DF80500012D06D0022D13D0032D97
:1007200020D0042D3CD12CE09DF804300222DDE9DC
:10073000020100F0F5FB9DF805300322DDE902011E
:1007400000F0EEFB2DE09DF804300422DDE902010B
:1007500000F0E6FB9DF805300522DDE9020100F01E
:10076000DFFB1EE09DF804300622DDE9020100F007
:10077000D7FB9DF805300722DDE9020100F0D0FB30
:100780000FE09DF804300822DDE9020100F0C8FB0B
:100790009DF805300922DDE9020100F0C1FB00E00F
:1007A00000BF00BF8122DDE9020100F099FA06B026
:1007B00070BD0000E816000813B52122DDE9000134
:1007C00000F08EFA00230222DDE9000100F0A8FB10
:1007D00000230322DDE9000100F0A2FB0023042234
:1007E000DDE9000100F09CFB00230522DDE90001AA
:1007F00000F096FB00230622DDE9000100F090FBEB
:1008000000230722DDE9000100F08AFB0023082213
:10081000DDE9000100F084FB00230922DDE900018D
:1008200000F07EFB8122DDE9000100F059FA1CBDD9
:100830007FB514461D46089E012C06D0022C11D00F
:10084000032C1CD0042C34D126E02B460222DDE9F7
:10085000000100F065FB33460322DDE9000100F0F2
:100860005FFB3BE02B460422DDE9000100F058FB72
:1008700033460522DDE9000100F052FB2EE02B4655
:100880000622DDE9000100F04BFB33460722DDE9DB
:10089000000100F045FB21E02B460822DDE90001C4
:1008A00000F03EFB33460922DDE9000100F038FB91
:1008B00014E0601E022101EB4000C2B20023DDE91A
:1008C000000100F02DFB601E032101EB4000C2B2CD
:1008D0000023DDE9000100F023FB00BF00BF8122FF
:1008E000DDE9000100F0FCF97FBD00007FB50446A2
:1008F00000F0F0FA00251DE0002618E01148825DA6
:10090000114850F82510684600F072FBDDE900013F
:10091000CDE902019DF80D0040B1DDE90201FFF7CC
:100920004BFFDDE90201C4E900017FBD761C042E06
:10093000E4D36D1C022DDFD3DDE90201C4E900011F
:1009400000BFF2E7E4160008D816000877B581B0BA
:1009500016463046FFF748FC3044441E042575E037
:10096000B4426AD3207830281BDB2078392818DC81
:1009700060782E280AD10120009020783038C3B248
:10098000EAB2DDE90101FFF7AFFE54E0002000907C
:1009900020783038C3B2EAB2DDE90101FFF7A4FEE6
:1009A00049E0207861280DDB20787A280ADC0020D5
:1009B000009020785738C3B2EAB2DDE90101FFF7B1
:1009C00093FE38E0207841280DDB20785A280ADC95
:1009D0000020009020783738C3B2EAB2DDE9010187
:1009E000FFF782FE27E020782D2808D10220EAB206
:1009F00000230090DDE90101FFF71AFF1BE02078DA
:100A00005F2808D10020EAB240230090DDE901010F
:100A1000FFF70EFF0FE02078602802D0207827280B
:100A200008D10020EAB280230090DDE90101FFF740
:100A3000FFFE00E06D1C641E07E00020EAB22523E3
:100A40000090DDE90101FFF74FFE6D1E012D87DAF1
:100A50007FBDF0B503461C6A5D6A00200DE00126EB
:100A6000864016403EB187000F26BE40B443860044
:100A700001FA06F63443461CB0B20828EFD308202A
:100A800011E00126864016405EB1A0F10806B700CD
:100A90000F26BE40B543A0F10806B60001FA06F6DF
:100AA0003543461CB0B21028EBD31C625D62F0BD2A
:100AB000C1627047F0B504460D4616462168E268EB
:100AC000002019E0012787401F409FB14FEA400CEA
:100AD000032707FA0CF7B943470005FA07F739432C
:100AE0004FEA400C032707FA0CF7BA43470006FA0F
:100AF00007F73A43471CB8B21028E3D32160E260FD
:100B0000F0BDF0B50C461546012C03D146681E43D6
:100B1000466002E046689E434660826800210DE020
:100B200001268E401E403EB14F000326BE40B24318
:100B30004E0005FA06F632434E1CB1B21029EFD32F
:100B40008260F0BD1FB54FF4885000F0DBFB144805
:100B500000F092FC44F62060ADF800000020ADF8F3
:100B60000200ADF80400ADF8060042F210700290E9
:100B700000208DF80C006946094800F045FD002171
:100B8000074800F077FC064800F038FD01210448D2
:100B900000F086FD01221146192000F0B5FA1FBDB4
:100BA0000000014010B540F6014000F0ABFB4FF4EF
:100BB0008073012202211248FFF77CFF4FF48073FB
:100BC000022201210E48FFF79CFF4FF4807204219E
:100BD0000B48FFF73EFF4FF4007301220221084843
:100BE000FFF768FF4FF40073022201210448FFF76A
:100BF00088FF4FF4007204210148FFF72AFF10BD5F
:100C00000004024010B541F2150000F07BFB002209
:100C100009490A4800F0B4F8A02300221146074809
:100C200000F06FF94FF48061044800F051F8034878
:100C300000F028F910BD0000A0860100005400401B
:100C400010B540F6054000F05DFB02230122194675
:100C50000F48FFF72FFF02231A4601210C48FFF728
:100C600050FF022204210A48FFF7F3FE01231A462F
:100C700002210748FFF71EFF0123022219460448FC
:100C8000FFF73FFF012204210148FFF7E2FE10BDFC
:100C90000014024010B541F2160000F033FB0022B0
:100CA00009490A4800F06CF8A023002211460748C1
:100CB00000F027F94FF48061044800F009F8034878
:100CC00000F0E0F810BD0000A086010000580040D0
:100CD0000A460021016821F48061114301607047D8
:100CE00037B51446002500BF40F20161009800F0BE
:100CF000E2F80028F8D1009800F0CCF900BF4FF4DA
:100D0000A061009800F0D7F80028F8D09DF80410F2
:100D10006FF00102009800F0EAF809E0681C05464F
:100D20001649884204D9009800F0B9F900203EBD68
:100D300040F20151009800F0BEF80028EED040F2D9
:100D40000151009800F0A3F800BF40F2075100984D
:100D500000F0B1F80128F8D12146009800F082F89F
:100D600000BF40F20251009800F0A5F80028F8D02A
:100D7000009800F094F90120D9E70000A086010056
:100D80002DE9F05F04460E469346022000F028FA53
:100D900007463148B7FBF0F9B9F13C0F01D34FF0EA
:100DA0003C09D4F804A02AF03F0A4AEA090AC4F828
:100DB00004A02A4886421ED82748B7FBF0F000F16D
:100DC0000108B8F13C0F02D33C20206207E0B8F1E3
:100DD000020F02D80220206201E0C4F820807000D7
:100DE000B7FBF0F5042D00D20425E069C5F30B0133
:100DF0000843E0612EE01A4886422BD84FF49670E3
:100E000009FB00F04FF47A71B0FBF1F0401C206256
:100E1000BBF1000F08D106EB4600B7FBF0F5E06927
:100E200020F48040E06109E006EBC60000EB06100C
:100E3000B7FBF0F5E06940F48040E061C5F30B00DA
:100E400008B945F00105E06940F40040E061E0695F
:100E50002843E061BDE8F09F40420F00A0860100FA
:100E6000801A0600CAB202617047002107E0002222
:100E700000E0521C49F640439A42FAD3491C814291
:100E8000F5D37047016841F001010160704710B56A
:100E900040F20152914202D1426982690AE000EBBC
:100EA0009112126801F01F040123A3409A4300EB42
:100EB00091131A6010BD10B5024602EB9110006844
:100EC00001F01F040123A340184008B1012010BD08
:100ED0000020FCE710B5FFF765FEFFF793FEFFF774
:100EE000AFFEFFF7D7FE0120FFF7BFFF10BD12F1E5
:100EF000020F02D121F0010101E041F00101016185
:100F0000704730B50C460021016821F002012143F1
:100F10000160C3F3090342EA0305856030BD0000A8
:100F20007FB514461D46002600BF40F201610098BF
:100F3000FFF7C1FF0028F8D1009800F0ABF800BF20
:100F40004FF4A0610098FFF7B6FF0028F8D09DF895
:100F500004106FF001020098FFF7C9FF0AE0701C4F
:100F600006462249884205D9009800F098F80020EA
:100F700004B070BD40F201510098FFF79CFF0028BB
:100F8000EDD040F201510098FFF781FF00BF40F221
:100F900007510098FFF78FFF0128F8D121460098EC
:100FA000FFF760FF00BF40F202510098FFF783FF98
:100FB0000028F8D00220FFF758FF00BF40F2075189
:100FC0000098FFF778FF0128F8D129460098FFF72D
:100FD00049FF00BF40F202510098FFF76CFF002864
:100FE000F8D0009800F05BF80120C1E7A08601006E
:100FF0002DE9FC4104460D46164600200090019064
:1010000000958DF80460002700BF40F2016128467A
:10101000FFF751FF0028F8D1284600F03BF800BF49
:101020004FF4A0612846FFF746FF0028F8D06FF084
:10103000010231462846FFF75AFF10E0781C0746A8
:10104000134988420BD9009800F029F800208DF848
:101050000500DDE90001C4E90001BDE8FC8140F2C2
:1010600001512846FFF727FF0028E7D040F2015141
:101070000098FFF70CFF284600F011F801208DF8CA
:101080000500DDE90001C4E9000100BFE5E700005B
:10109000A0860100016841F4807101607047016819
:1010A00041F400710160704786B001A8FFF71EFC93
:1010B0000F48DDE9011206C0FFF744FD0DA20C4800
:1010C00003C8FFF743FC11E00C48007801280DD15C
:1010D00000200A4908700A4802680AA103A8FFF71D
:1010E00039F903AA024803C8FFF730FCECE7000017
:1010F00008000020626F6F740000000014000020E0
:1011000010000020253464002DE9F04103460D460F
:10111000164600240027A0462A48006800F4E06034
:10112000B0F5E06F03D100BF4FF0040830E0254870
:10113000006800F4E060B0F5C06F03D101274FF004
:10114000030825E01F48006800F4E060B0F5A06FD8
:1011500002D10227B8461BE01A48006800F4E0609C
:10116000B0F5806F03D103274FF0010810E0154858
:10117000006800F4E060B0F5407F03D104274FF031
:10118000000805E04FF4A06000F020F80227B84600
:10119000C7F1040005FA00F4C8F104010F20C840AB
:1011A0003040044324010848C45403F01F010120C7
:1011B00088405911890001F1E021C1F80001BDE822
:1011C000F08100000CED00E000E400E00249014382
:1011D000024A1160704700000000FA050CED00E0C3
:1011E0002DE9F04F8CB0064600200A903EA090E812
:1011F000004CC068CDE905BECDF810A007900FF2F5
:10120000EC0ADAE9000ACDE9020A0FF2E00ADAE9AB
:10121000000ACDE9000A38480068C0F381000B904D
:101220000B9820B1012804D0022828D103E03349CB
:1012300027E0334925E03048001F006800F03F07F1
:101240002D48001F0068C0F3881C2B48001F006851
:10125000C0F30140401C4FEA40092748001F0068C6
:1012600000F48008B8F5800F01D1254B00E0234B36
:10127000B3FBF7F000FB0CF0B0FBF9F101E01F4904
:1012800000BF00BF1C480068C0F3031404A8055D3C
:1012900021FA05F218480068C0F3822402A8055D0F
:1012A00022FA05F0099014480068C0F342341DF892
:1012B000045022FA05F0089036B1012E06D0022E15
:1012C00006D0032E0AD106E00A9108E00A9206E051
:1012D00009980A9003E008980A9000E000BF00BF58
:1012E0000A980CB0BDE8F08F00000000000000007C
:1012F0000102030406070809083802400024F4002C
:1013000040787D01074A02EB9011D1F8001800F0F7
:101310001F0301229A401143024B03EB9012C2F8C3
:101320000018704700300240074A02EB9011D1F8D4
:10133000001800F01F0301229A409143024B03EB77
:101340009012C2F80018704700300240074A02EBC2
:101350009011D1F8001800F01F0301229A401143A8
:10136000024B03EB9012C2F80018704700300240A5
:10137000002000213A4A126842F48032384B1A6049
:1013800000BF401C364A126802F4003119B94FF60A
:10139000FF729042F5D1324A126802F400320AB963
:1013A00000BFFEE72E4A4032126842F080522C4BBA
:1013B00040331A602B4A126842F44042294B1A60AB
:1013C000274A08321268264B08331A601A461268F8
:1013D00042F400421A601A46126842F4A0521A609F
:1013E000214A1B1F1A601A1F126842F080721B1FCD
:1013F0001A6000BF1A4A126802F00072002AF9D07F
:10140000184A126842F48032164B1A6000BF154A1F
:10141000526802F48032002AF9D0124A126842F46B
:101420000032104B1A6000BF0E4A526802F40032BC
:10143000002AF9D00A4A0832126822F00302084B47
:1014400008331A601A46126842F002021A6000BF9E
:10145000034A0832126802F00802002AF8D07047E6
:1014600000380240007000401964400910B5FFF7D1
:101470007FFF10BD4162704710B504465C49601A99
:101480008C426FD019DC5B49A4EB01008C424ED03A
:1014900009DCB4F1804F2ED057482044A0B3B0F5FA
:1014A000806F72D13AE0B0F5806F49D0B0F5006F2F
:1014B0004FD0B0F5406FF4D17BE0B0F5923F5BD0F8
:1014C00009DCB0F5806F73D0B0F5644F0AD0B0F589
:1014D000684F5AD147E0B0F5943F57D0B0F5963FEA
:1014E00053D15CE04FF41060FFF730FF4FF4106011
:1014F000FFF71AFF79E04FF40060FFF727FF4FF482
:101500000060FFF711FF70E0FFE740F60100FFF712
:101510001DFF40F60100FFF707FF66E040F60200FE
:10152000FFF714FF40F60200FFF7FEFE5DE040F615
:101530000300FFF70BFF40F60300FFF7F5FE54E052
:1015400040F60400FFF702FF40F60400FFF7ECFE50
:101550004BE040F60500FFF7F9FE40F60500FFF707
:10156000E3FE42E02EE040F60110FFF7EFFE40F60A
:101570000110FFF7D9FE38E04FF41160FFF7E6FEE7
:101580004FF41160FFF7D0FE2FE02DE040F6111070
:10159000FFF7DCFE40F61110FFF7C6FE25E040F62F
:1015A0001210FFF7D3FE40F61210FFF7BDFE1CE04D
:1015B00011E040F60600FFF7C9FE40F60600FFF70F
:1015C000B3FE12E040F60700FFF7C0FE40F607004A
:1015D000FFF7AAFE09E040F60800FFF7B7FE40F665
:1015E0000800FFF7A1FE00E000BF00BF10BD000033
:1015F000001C0040000C004000FCFFBF016841F0EF
:1016000001010160704700000A8882621D4A904211
:101610000ED0B0F1804F0BD01B4A904208D01B4A2D
:10162000904205D01A4A904202D01A4A90420BD1F9
:10163000026822F07002026002684B881A4302605E
:1016400002688B881A4302608A68C262124A90421A
:101650000AD0124A904207D0026822F44072026017
:101660000268CB881A430260064A904202D0094AB7
:10167000904201D10A7B0263426942F00102426159
:1016800070470000000001400004004000080040D6
:10169000000C004000040140001000400014004015
:1016A000C2680A43C2607047CA430261704702467B
:1016B000D06800EA01031069084010B10BB10120A5
:1016C00070470020FCE7000010B510210148FFF72B
:1016D000EFF910BD001402400054004000580040D3
:1016E000C0C2C4C6E0E2E4E6F8013000D8027802E5
:1016F00030036803E8033800F8037803B803E00315
:10170000C801F002C8038803E801B003200070009C
:10171000D003C001A802A002E002980338038002AF
:101720002003C003F00110035003B001700348020E
:1017300000020000541700080000002018000000FC
:101740007C0300086C17000818000020000400004B
:101750008C030008000000000000000000000000F2
:0C1760000000000000000000000000007D
:04000005080001AD41
:00000001FF
