:020000040800F2
:1000000078040020C5010008CD010008CF010008D8
:10001000D1010008D3010008D5010008000000004C
:10002000000000000000000000000000D7010008F0
:10003000D901000800000000DB010008DD01000814
:10004000DF010008DF010008DF010008DF01000810
:10005000DF010008DF010008DF010008DF01000800
:10006000DF010008DF010008DF010008DF010008F0
:10007000DF010008DF010008DF010008DF010008E0
:10008000DF010008DF010008DF010008DF010008D0
:10009000DF010008DF010008DF010008DF010008C0
:1000A000DF01000835060008DF010008DF01000855
:1000B000DF010008DF010008DF010008DF010008A0
:1000C000DF010008DF010008DF010008DF01000890
:1000D000DF010008DF010008DF010008DF01000880
:1000E000DF010008DF010008DF010008DF01000870
:1000F000DF010008DF010008DF010008DF01000860
:10010000DF010008DF010008DF010008DF0100084F
:10011000DF010008DF010008DF010008DF0100083F
:10012000DF010008DF010008DF010008DF0100082F
:10013000DF010008DF010008DF010008DF0100081F
:10014000DF010008DF010008DF010008DF0100080F
:10015000DF010008DF010008DF010008DF010008FF
:10016000DF010008DF010008DF010008DF010008EF
:10017000DF010008DF010008DF01000800000000C7
:10018000DF010008DF010008DF010008DF010008CF
:10019000DF010008DF010008DF01000800000000A7
:1001A000DF010008DF010008DF010008DFF810D0E0
:1001B00000F0B4F900480047F91B0008AFF30080D5
:1001C000780400200648804706480047FEE7FEE71F
:1001D000FEE7FEE7FEE7FEE7FEE7FEE7FEE7FEE7F7
:1001E00061050008AD01000840EA01039B0703D048
:1001F00009E008C9121F08C0042AFAD203E011F866
:10020000013B00F8013B521EF9D27047421C10F826
:10021000011B0029FBD1801A704730B5044600202D
:10022000034600E05B1C934203D2E05CCD5C401BC4
:10023000F8D030BD2DE9FE4F81EA030404F00044FC
:1002400021F0004100944FF0000B23F0004350EAEE
:1002500001045ED052EA03045BD0C3F30A54C1F335
:100260000A552C44A4F2F3340194A0FB0254C1F3C8
:10027000130141F48011C3F3130343F4801301FB12
:10028000024400FB034E840A970A44EA815447EA79
:100290008357A4FB076802958D0A05FB07854FEA83
:1002A000932C04FB0C542705029D4FEA065847EA9D
:1002B0001637B5EB08056EEB070C870E920E47EA72
:1002C000811742EA8312A7FB0201B6EB0B0164EB34
:1002D00000042B0D43EA0C335E1844EB1C50DA4645
:1002E0005146E7FB0201C5F313044FEA0B3343EA1F
:1002F00014534FEA0432019C43EA0603A4F10C04B0
:100300000294009CCDE900B400F0B9F803B0BDE858
:10031000F08F00200146F9E70EB5C10F80EAE070CA
:100320000844CA07002140F233438DE80E000A4614
:100330000B4600F0A4F803B000BD01F0004330B458
:1003400021F0004150EA010206D00A0DA2F56072C8
:10035000C1F31301002A02DC30BC00207047440FB7
:1003600044EAC104C100E01830BC00EBC25000F008
:1003700040B82DE9F05F0546002092469B4688462E
:100380000646814640241BE0284641464746224611
:1003900000F0D6F853465A46C01A914110D3114680
:1003A0001846224600F016F82D1A67EB01084F4652
:1003B00022460120002100F00DF817EB00094E4104
:1003C000201EA4F10104DFDC484631462A4643469C
:1003D000BDE8F09F202A04DB203A00FA02F1002059
:1003E00070479140C2F1200320FA03F31943904073
:1003F00070470029A8BF7047401C490008BF20F083
:100400000100704710B4B0FA80FC00FA0CF050EA1A
:10041000010404BF10BC704749B1CCF1200421FA9B
:1004200004F411FA0CF118BF012121430843A3EB96
:100430000C01CB1D4FEA00614FEA102042BF0020A3
:1004400010BC704700EBC35010440029A4BF10BC7F
:100450007047401C490008BF20F0010010BC7047E5
:1004600010B5141E73F1000408DA401C41F10001BC
:1004700092185B411A4301D120F0010010BD2DE913
:10048000F04D92469B4611B1B1FA81F202E0B0FA0A
:1004900080F220329046FFF79DFF04460F4640EA67
:1004A0000A0041EA0B0153465A46084313D011464D
:1004B00053EA010019D0C8F14002504600F040F85C
:1004C00005460E46504659464246FFF783FF08430D
:1004D00005D0012004E020463946BDE8F08D00201B
:1004E000054346EAE0762C4337430A986305E40A5D
:1004F000A0EB08000022FD0A44EA47540A3002D566
:1005000000200146E9E7010510196941DDE90845C8
:1005100000196941BDE8F04DA2E70000064C074D07
:1005200006E0E06840F0010394E8070098471034C3
:10053000AC42F6D3FFF73EFEFC2C00081C2D000851
:10054000202A04DB203A21FA02F00021704721FA28
:1005500002F3D040C2F1200291400843194670478F
:1005600008B53048006840F470002E4908602E48F5
:10057000006840F001002C49086000BF2A4800686C
:1005800000F002000028F9D000BF274808300068BA
:1005900040F080002449083108600020009002E00B
:1005A0000098401C009000985028F9D31E4808304D
:1005B000006840F090001C4908310860002000905D
:1005C00002E00098401C009000985028F9D300BF2A
:1005D00015480830006820F003001349083108600E
:1005E00011480068114908400F4908600846006832
:1005F00020F48020086000200B490831086000BF0B
:1006000009480830006800200028F9D10848064948
:10061000091D0860002004490C31086002F026FA28
:1006200008BD000088ED00E000380240FFFFF6FE44
:100630001030002410B50121054802F01EFA28B13F
:1006400002F028FA0121024802F014FA10BD00005D
:10065000000001400FB4084B10B504A902AA03988A
:1006600000F03EF8044602A9002000F064FA20469B
:1006700010BC5DF814FB0000370B000810B52DED21
:10068000028BB1EEC08A18EE100A20F00040C0F1D3
:10069000FF40C00F0AD010EE100A20F00040C0F159
:1006A000FF40C00F04BF012000F014F8B0EE480A6C
:1006B000BDEC028B10BD02E008C8121F08C1002A61
:1006C000FAD170477047002001E001C1121F002AD3
:1006D000FBD170470149086070470000740000209A
:1006E0002DE9FF4F8DB00F460546002606E0252870
:1006F0000BD0DDE90F1290476D1C761C287800287E
:10070000F5D111B03046BDE8F08F0024A246A146D5
:100710000122E94900E0044315F8013F203B02FAB9
:1007200003F00842F7D128782A2810D06FF02F0262
:100730002878A0F13001092914D80AEB8A0102EBCC
:10074000410144F0020400EB010A6D1CF0E701CF07
:100750005FEA000A03D544F40054CAF1000A44F0E9
:1007600002046D1C28782E2817D115F8010F44F0CB
:1007700004042A280ED06FF02F022878A0F130014F
:1007800009290AD809EB890102EB410100EB0109B3
:100790006D1CF2E757F8049B6D1C28786C280FD06D
:1007A00006DC4C2817D068280DD06A2814D104E044
:1007B000742810D07A280FD10DE044F400140AE018
:1007C00044F4801401E044F440146978814202D179
:1007D00004F580146D1C6D1C28786E281ED00CDC6E
:1007E000632830D004DC00288BD0582811D19FE03A
:1007F000642867D069280CD164E073282DD004DC0C
:100800006F2872D0702804D194E075286ED07828B3
:100810006DD0DDE90F129047761C4BE1C4F3025016
:10082000022806D0032809D0042801CF09D0066089
:1008300040E101CFF117C0E900613BE101CF068043
:1008400038E1067036E117F8040B8DF8000000203F
:100850008DF80100EB46012003E057F804BB4FF090
:10086000FF3061074FF0000102D40DE008F10101F3
:10087000884649450FDA8045F8DB1BF80810002947
:10088000F4D108E008F1010188468142FADB1BF847
:1008900008100029F6D1DDE90F23AAEB08008146F4
:1008A000214600F031F9304400EB080604E0DDE9B0
:1008B0000F121BF8010B9047B8F10108F7D221463F
:1008C0004846F2E00A21C4F302524FF0000B0891AF
:1008D000022A04D001CFC117032A09D00AE0FF1D64
:1008E00027F00707F7E8020108E02CE01EE01FE010
:1008F00000B2C117042A01D140B2C117021E71F122
:10090000000206DA0023D0EB030063EB01012D2285
:1009100002E0220504D52B228DF82420012203E0D9
:10092000E20701D02022F7E7904653E00A210BE0CE
:10093000102109E010214FF0000B44F004044FF0A7
:100940000809089103E008214FF0000B0891C4F357
:100950000252022A04D001CF0021032A06D006E069
:10096000FF1D27F00707F7E8020103E080B2042A21
:1009700000D1C0B24FF0000822072BD52A78702A88
:1009800007D0DDF820C08CF0100C5CEA0B0C05D011
:100990000EE040228DF82420012208E050EA0103F5
:1009A00006D030238DF824308DF825200222904681
:1009B000089B83F0080353EA0B030BD150EA0102B2
:1009C00001D1620706D530228DF824204FF00108AE
:1009D000A9F101092A78582A04D038A20B9208AA52
:1009E0000A920BE03AA2F9E75B46089AFFF7C1FCCE
:1009F0000B9B9B5C0A9A521E0A92137050EA0102EA
:100A0000F2D10A98ADEB000000F1200B600702D58F
:100A100024F4803401E04FF00109D94502DDA9EB4F
:100A20000B0000E0002000EB0B0141440890AAEB12
:100A3000010AE00306D4DDE90F232146504600F009
:100A400063F806444FF0000908E009A911F809000D
:100A5000DDE90F12904709F10109761CC145F4DB6D
:100A6000E0030CD5DDE90F232146504600F04CF899
:100A7000064404E0DDE90F1230209047761C089907
:100A8000481E08900029F5DC08E00A980A990078C9
:100A9000491C0A91DDE90F129047761CBBF1000159
:100AA000ABF1010BF1DC21465046DDE90F2300F0EC
:100AB00019F806446D1C21E6092801003031323353
:100AC000343536373839616263646566000000008A
:100AD0003031323334353637383941424344454674
:100AE000000000002DE9F041044600251E4617468F
:100AF000880404D405E039462020B0476D1C641EEC
:100B0000F9D52846BDE8F0812DE9F04104460025DD
:100B10001E469046C80301D5302700E020278804F0
:100B200004D505E041463846B0476D1C641EF9D532
:100B30002846BDE8F0810A68531C0B6010707047AE
:100B4000002107E0002200E0521C49F640439A428F
:100B5000FAD3491C8142F5D3704700007FB582B0BB
:100B600015461C460A9E304810F814008DF8040003
:100B70002D4800EB440040788DF805002EB19DF81B
:100B80000500001DC0B28DF80500012D06D0022D14
:100B900013D0032D20D0042D3CD12CE09DF804303F
:100BA0000222DDE9020100F0C9FD9DF805300322B3
:100BB000DDE9020100F0C2FD2DE09DF804300422C1
:100BC000DDE9020100F0BAFD9DF805300522DDE9FE
:100BD000020100F0B3FD1EE09DF804300622DDE9BD
:100BE000020100F0ABFD9DF805300722DDE90201AE
:100BF00000F0A4FD0FE09DF804300822DDE90201B9
:100C000000F09CFD9DF805300922DDE9020100F0AD
:100C100095FD00E000BF00BF8122DDE9020100F088
:100C200069FC06B070BD00005C2C000813B52122E1
:100C3000DDE9000100F05EFC00230222DDE9000195
:100C400000F07CFD00230322DDE9000100F076FDC9
:100C500000230422DDE9000100F070FD00230522DD
:100C6000DDE9000100F06AFD00230622DDE9000154
:100C700000F064FD00230722DDE9000100F05EFDC5
:100C800000230822DDE9000100F058FD00230922BD
:100C9000DDE9000100F052FD8122DDE9000100F0F4
:100CA00029FC1CBD7FB514461D46089E012C06D0AC
:100CB000022C11D0032C1CD0042C34D126E02B465E
:100CC0000222DDE9000100F039FD33460322DDE9AF
:100CD000000100F033FD3BE02B460422DDE900017A
:100CE00000F02CFD33460522DDE9000100F026FD71
:100CF0002EE02B460622DDE9000100F01FFD334601
:100D00000722DDE9000100F019FD21E02B46082251
:100D1000DDE9000100F012FD33460922DDE90001A2
:100D200000F00CFD14E0601E022101EB4000C2B295
:100D30000023DDE9000100F001FD601E032101EB4D
:100D40004000C2B20023DDE9000100F0F7FC00BF63
:100D500000BF8122DDE9000100F0CCFB7FBD000077
:100D60007FB5044600F0C4FC00251DE0002618E015
:100D70001148825D114850F82510684600F074FE55
:100D8000DDE90001CDE902019DF80D0040B1DDE98A
:100D9000020100F040F8DDE90201C4E900017FBD75
:100DA000761C042EE4D36D1C022DDFD3DDE9020195
:100DB000C4E9000100BFF2E7542C00084C2C0008E5
:100DC0002DE9FF4182B015461E46DDF830800F2424
:100DD00004EB051087B2234601220097DDE90201EA
:100DE00000F021F800BF04EB061087B22346002272
:100DF0000097DDE9020100F016F800BF04EB0810CF
:100E000087B2234602220097DDE9020100F00BF8C9
:100E100006B0BDE8F08113B500231A46DDE90001F4
:100E200000F08CFC1CBD7FB514461D46089EEBB23D
:100E3000A000801DC2B2DDE9000100F07FFC2B1292
:100E4000A000C01DC2B2DDE9000100F077FCF3B2E2
:100E5000A0000830C2B2DDE9000100F06FFC3312DF
:100E6000A0000930C2B2DDE9000100F067FC7FBDDF
:100E70007FB5044600F03CFC00251DE0002618E08C
:100E80001148825D114850F82510684600F0ECFDCD
:100E9000DDE90001CDE902019DF80D0040B1DDE979
:100EA0000201FFF7C3FEDDE90201C4E900017FBDD5
:100EB000761C042EE4D36D1C022DDFD3DDE9020184
:100EC000C4E9000100BFF2E7582C00084C2C0008D0
:100ED00077B581B016463046FFF798F93044441E86
:100EE000042575E0B4426AD3207830281BDB2078D3
:100EF000392818DC60782E280AD10120009020784B
:100F00003038C3B2EAB2DDE90101FFF727FE54E051
:100F10000020009020783038C3B2EAB2DDE9010148
:100F2000FFF71CFE49E0207861280DDB20787A2845
:100F30000ADC0020009020785738C3B2EAB2DDE91D
:100F40000101FFF70BFE38E0207841280DDB207807
:100F50005A280ADC0020009020783738C3B2EAB261
:100F6000DDE90101FFF7FAFD27E020782D2808D1FF
:100F70000220EAB200230090DDE90101FFF792FEB2
:100F80001BE020785F2808D10020EAB240230090BF
:100F9000DDE90101FFF786FE0FE02078602802D02E
:100FA0002078272808D10020EAB280230090DDE9CC
:100FB0000101FFF777FE00E06D1C641E07E00020D2
:100FC000EAB225230090DDE90101FFF7C7FD6D1EA0
:100FD000012D87DA7FBD00007FB5044600F088FB55
:100FE00000251DE0002618E01148825D114850F8E8
:100FF0002510684600F038FDDDE90001CDE9020169
:101000009DF80D0040B1DDE9020100F02BF8DDE9AB
:101010000201C4E900017FBD761C042EE4D36D1CDF
:10102000022DDFD3DDE90201C4E9000100BFF2E7D0
:10103000B02C0008A82C000877B581B01446642CA9
:1010400000DD64240025C4EB0430642190FBF1F042
:10105000284486B22B4600220096DDE9010100F00B
:1010600009F87FBD13B500231A46DDE9000100F041
:1010700065FB1CBD7FB514461D46089EEBB2A00063
:10108000801DC2B2DDE9000100F058FB2B12A00068
:10109000C01DC2B2DDE9000100F050FBF3B2A000B8
:1010A0000830C2B2DDE9000100F048FB3312A000B5
:1010B0000930C2B2DDE9000100F040FB7FBDF0B5B0
:1010C00003461C6A5D6A00200DE00126864016403A
:1010D0003EB187000F26BE40B443860001FA06F6F3
:1010E0003443461CB0B20828EFD3082011E0012693
:1010F000864016405EB1A0F10806B7000F26BE403C
:10110000B543A0F10806B60001FA06F63543461CC1
:10111000B0B21028EBD31C625D62F0BDC1627047B3
:10112000F0B504460D4616462168E268002019E035
:10113000012787401F409FB14FEA400C032707FA61
:101140000CF7B943470005FA07F739434FEA400C5B
:10115000032707FA0CF7BA43470006FA07F73A43A2
:10116000471CB8B21028E3D32160E260F0BDF0B5AF
:101170000C461546012C03D146681E43466002E02A
:1011800046689E434660826800210DE001268E403D
:101190001E403EB14F000326BE40B2434E0005FA4A
:1011A00006F632434E1CB1B21029EFD38260F0BD77
:1011B00010B5044646480078072875D2DFE800F0ED
:1011C0006B0443445C846C002A2C03D10420404906
:1011D000087037E0232C03D100203D49087031E02E
:1011E000312C06D13B48006800F5967039490860FB
:1011F00028E0322C01D0332C24D137480068032159
:1012000090FBF1F201FB1200401C334908600846D4
:101210000068012804D11422304803C8FFF70CFFEE
:101220002D480068022804D128222C4803C8FFF763
:1012300003FF29480068032804D13C22274803C83B
:10124000FFF7FAFE41E000BF2A2C01D101F05EFB5E
:10125000302C02D101F05AFB0DE0312C06D11D4893
:10126000006800F596701B49086004E0232C02D149
:1012700000201749087028E02A2C0BD101201449BE
:101280000870174803C801F01DFB012802D1002097
:101290001449086019E000BF232C06D100200C4936
:1012A0000870114908600EE00EE0352C0BD10720C4
:1012B000074908700DA20F4803C8FFF709FE4FF455
:1012C000FA70FFF73DFC00E000BF00BF10BD00005A
:1012D000480000204C000020680000201000002082
:1012E000400000206C000020600000207245416436
:1012F00000000000080000201CB56846FFF730FD24
:101300002148DDE9001206C06846FFF7B1FD1F481D
:10131000DDE9001206C06846FFF75EFE1C48DDE905
:10132000001206C0684600F04BFE1A48DDE90012C4
:1013300006C0684600F024FF1748DDE9001206C029
:10134000684600F04DFF1548DDE9001206C068460A
:1013500001F022FA1248DDE9001206C0684601F0E9
:1013600081FA1048DDE9001206C00020034602465B
:101370000090054803C8FFF723FD0022044803C876
:10138000FFF75AFE1CBD00000000002008000020EE
:101390001000002018000020200000203000002055
:1013A000380000204000002010B540F6014000F059
:1013B000EDFD4FF48073012202211248FFF7B0FEC9
:1013C0004FF48073022201210E48FFF7D0FE4FF444
:1013D000807204210B48FFF772FE4FF40073012264
:1013E00002210848FFF79CFE4FF4007302220121FE
:1013F0000448FFF7BCFE4FF4007204210148FFF7D8
:101400005EFE10BD0004024010B541F2150000F070
:10141000BDFD002209490A4800F0BCF8A0230022C3
:101420001146074800F07BF94FF48061044800F052
:1014300051F8034800F034F910BD0000A086010007
:101440000054004010B540F6054000F09FFD022317
:10145000012219460F48FFF763FE02231A460121B5
:101460000C48FFF784FE022204210A48FFF727FEFA
:1014700001231A4602210748FFF752FE01230222E8
:1014800019460448FFF773FE012204210148FFF7C3
:1014900016FE10BD0014024010B541F2160000F017
:1014A00075FD002209490A4800F074F8A0230022C3
:1014B0001146074800F033F94FF48061044800F00A
:1014C00009F8034800F0ECF810BD0000A086010008
:1014D000005800400A460021016821F48061114350
:1014E000016070470A460021016821F40061114340
:1014F0000160704737B51446002500BF40F2016116
:10150000009800F0E6F80028F8D1009800F0FEFA04
:1015100000BF4FF4A061009800F0DBF80028F8D07D
:101520009DF804106FF00102009800F0EEF809E059
:10153000681C05461649884204D9009800F0EBFA69
:1015400000203EBD40F20151009800F0C2F8002892
:10155000EED040F20151009800F0A7F800BF40F231
:101560000751009800F0B5F80128F8D121460098FD
:1015700000F086F800BF40F20251009800F0A9F890
:101580000028F8D0009800F0C6FA0120D9E7000042
:10159000A08601002DE9F05F04460E469346022026
:1015A00000F062FC07463148B7FBF0F9B9F13C0F97
:1015B00001D34FF03C09D4F804A02AF03F0A4AEACC
:1015C000090AC4F804A02A4886421ED82748B7FB57
:1015D000F0F000F10108B8F13C0F02D33C2020628A
:1015E00007E0B8F1020F02D80220206201E0C4F83F
:1015F00020807000B7FBF0F5042D00D20425E069CF
:10160000C5F30B010843E0612EE01A4886422BD84F
:101610004FF4967009FB00F04FF47A71B0FBF1F0D3
:10162000401C2062BBF1000F08D106EB4600B7FB5F
:10163000F0F5E06920F48040E06109E006EBC600C7
:1016400000EB0610B7FBF0F5E06940F48040E06184
:10165000C5F30B0008B945F00105E06940F400400E
:10166000E061E0692843E061BDE8F09F40420F007F
:10167000A0860100801A060001460869C0B27047C2
:10168000CAB202617047002107E0002200E0521C4C
:1016900049F640439A42FAD3491C8142F5D3704738
:1016A000016841F001010160704710B540F201523C
:1016B000914202D1426982690AE000EB91121268FC
:1016C00001F01F040123A3409A4300EB91131A6019
:1016D00010BD10B5024602EB9110006801F01F0426
:1016E0000123A340184008B1012010BD0020FCE7F1
:1016F00010B5FFF759FEFFF787FEFFF7A3FEFFF7D0
:10170000CBFE0120FFF7BFFF10BD12F1020F02D187
:1017100021F0010101E041F001010161704730B5A4
:101720000C460021016821F0020121430160C3F34E
:10173000090342EA0305856030BD00007FB5144609
:101740001D46002600BF40F201610098FFF7C1FF6F
:101750000028F8D1009800F0D9F900BF4FF4A0613B
:101760000098FFF7B6FF0028F8D09DF804106FF03E
:1017700001020098FFF7C9FF0AE0701C06462249E3
:10178000884205D9009800F0C6F9002004B070BD69
:1017900040F201510098FFF79CFF0028EDD040F285
:1017A00001510098FFF781FF00BF40F207510098F8
:1017B000FFF78FFF0128F8D121460098FFF760FF5F
:1017C00000BF40F202510098FFF783FF0028F8D0D5
:1017D0000220FFF758FF00BF40F207510098FFF7C3
:1017E00078FF0128F8D129460098FFF749FF00BF8C
:1017F00040F202510098FFF76CFF0028F8D00098E3
:1018000000F089F90120C1E7A08601002DE9FF4120
:1018100016461D460A9C002700BF40F20161009851
:10182000FFF757FF0028F8D1009800F06FF900BFCC
:101830004FF4A0610098FFF74CFF0028F8D09DF806
:1018400004106FF001020098FFF75FFF0BE0781CB7
:1018500007464C49884206D9009800F05CF9002000
:1018600004B0BDE8F08140F201510098FFF731FF6C
:101870000028ECD040F201510098FFF716FF00BF9E
:1018800040F207510098FFF724FF0128F8D13146B4
:101890000098FFF7F5FE00BF40F202510098FFF7F5
:1018A00018FF0028F8D0009800F030F900BF4FF47E
:1018B000A0610098FFF70DFF0028F8D09DF80410F4
:1018C00001220098FFF721FF09E0781C07462D4907
:1018D000884204D9009800F01EF90020C0E740F2C9
:1018E00001510098FFF7F5FE0028EED040F20151BB
:1018F0000098FFF7DAFE022C03DC00210098FFF7C6
:10190000E9FD022C03D1A1020098FFF7EBFD012CA9
:1019100002D1009800F0FFF827E0032C0BD100BFA4
:1019200040F202510098FFF7D4FE0028F8D00021C1
:101930000098FFF7CFFD022C0AD100BF40F2025100
:101940000098FFF7C6FE0028F8D0009800F0E3F8F2
:1019500040F206510098FFF7BCFE30B10098FFF747
:101960008BFE28706D1C601EC4B2002CD5D14FF4C4
:1019700080610098FFF7AEFD00210098FFF7B2FDEF
:1019800001206DE7A08601002DE9FF4115461C46A8
:101990000A9E002700BF40F201610098FFF799FE00
:1019A0000028F8D1009800F0B1F800BF4FF4A06112
:1019B0000098FFF78EFE0028F8D09DF804106FF015
:1019C00001020098FFF7A1FE0BE0781C07462549AD
:1019D000884206D9009800F09EF8002004B0BDE8C7
:1019E000F08140F201510098FFF773FE0028ECD01F
:1019F00040F201510098FFF758FE00BF40F2075136
:101A00000098FFF766FE0128F8D129460098FFF7F5
:101A100037FE00BF40F202510098FFF75AFE00283F
:101A2000F8D014E000BF40F207510098FFF751FED4
:101A30000128F8D121780098FFF722FE00BF40F27C
:101A400002510098FFF745FE0028F8D0641C301EB4
:101A5000A6F10101CEB2E5D1009800F05CF80120BA
:101A6000BCE70000A08601002DE9FC4104460D46BC
:101A7000164600200090019000958DF80460002724
:101A800000BF40F201612846FFF723FE0028F8D18D
:101A9000284600F03BF800BF4FF4A0612846FFF74E
:101AA00018FE0028F8D06FF0010231462846FFF7F3
:101AB0002CFE10E0781C0746134988420BD9009889
:101AC00000F029F800208DF80500DDE90001C4E9E7
:101AD0000001BDE8FC8140F201512846FFF7F9FD05
:101AE0000028E7D040F201510098FFF7DEFD2846BC
:101AF00000F011F801208DF80500DDE90001C4E9CE
:101B0000000100BFE5E70000A0860100016841F484
:101B1000807101607047016841F400710160704795
:101B200010B50446042226492046FEF776FB88B904
:101B300040F2DC50234908604FF496702249086057
:101B40004FF461702149086021A2234803C8FFF7C0
:101B5000BFF929E0042221492046FEF75EFB78B94F
:101B600040F6B830174908604FF4167016490860FF
:101B7000164908601AA2184803C8FFF7A9F913E02C
:101B8000042219492046FEF748FB18B906201749D8
:101B9000087010BD16A2104803C8FFF799F94FF45A
:101BA0007A70FEF7CDFFF4E740F2DC50FEF7C8FF95
:101BB00000201049086000F0A9FE00BFE9E700001E
:101BC000F02C000854000020580000205C00002089
:101BD000537464590000000008000020F42C000831
:101BE0006445455000000000F82C00084800002023
:101BF00045727200640000202DED028B88B0FFF763
:101C00007BFB0EE10024874803C800F009FA044674
:101C100085480078844203D014B12046FFF7C8FA03
:101C2000814804708148007818B1804800780628FF
:101C300010D106AB26227E4803C800F0DDFD40B976
:101C400007AA7B4803C800F063FD10B907A8FFF797
:101C500067FF36E075480078072832D106AB2622A8
:101C6000734803C800F0C8FD50BB07AA704803C8FA
:101C700000F04EFD20BB9DF81D309DF81C206DA18D
:101C800003A8FEF7E7FC03AA6D4803C8FFF720F995
:101C90004FF4FA60FEF754FF9DF81F309DF81E20A8
:101CA00064A103A8FEF7D6FC03AA654803C8FFF7A2
:101CB0000FF94FF4FA60FEF743FF00205B4908700C
:101CC00000BF604800680A2846DB00205D490860C4
:101CD0005D480068002804DD5B480068401E5A49E2
:101CE000086052480078012806D0022823D0032833
:101CF00022D005282ED126E053480068002819DCA0
:101D000052480068401C5149086051480068401C16
:101D10004F49086008460068042809DB0020086075
:101D20004C4800684849086003204049087001E0B9
:101D300000F008FE0FE000BF43480068002801DC07
:101D400000F0E4FD07E040480068002801DC00F0F6
:101D5000F9FD00E000BF00BF3448007801281FD122
:101D60003D4803C800F0AEFDB8B93C480068401CCF
:101D70003A49086008460068642148434FF47A7184
:101D800090FBF1F01E280BDB04202849087000228C
:101D9000334803C8FFF750F902E000202F490860DC
:101DA00022480078012831D12748006800282DDC1E
:101DB0002C4806C801A800F043FADDED010A60EEE8
:101DC000A00A9DED021ADDED021A41EE210A9DEDF9
:101DD000031ADDED031A41EE210AB0EE600AFEF7A8
:101DE0004DFCB0EE408AB7EE080AB4EEC08AF1EEC0
:101DF00010FA0ADD05200D4908704FF4967012495B
:101E000008604FF47A70FEF79BFE00BF00F04AFEB8
:101E10006420FEF795FE0B480068401C09490860E5
:101E200000BFEFE6180000207000002048000020EE
:101E3000380000202530327825303278000000004C
:101E400008000020500000204C000020600000200E
:101E5000640000205C000020400000206C00002096
:101E600010000020300000202DE9F04F8CB0064615
:101E700000200A903EA090E8004CC068CDE905BE65
:101E8000CDF810A007900FF2EC0ADAE9000ACDE9CC
:101E9000020A0FF2E00ADAE9000ACDE9000A38483E
:101EA0000068C0F381000B900B9820B1012804D08A
:101EB000022828D103E0334927E0334925E03048A0
:101EC000001F006800F03F072D48001F0068C0F3A6
:101ED000881C2B48001F0068C0F30140401C4FEADB
:101EE00040092748001F006800F48008B8F5800FFB
:101EF00001D1254B00E0234BB3FBF7F000FB0CF0C6
:101F0000B0FBF9F101E01F4900BF00BF1C480068A9
:101F1000C0F3031404A8055D21FA05F2184800680F
:101F2000C0F3822402A8055D22FA05F00990144846
:101F30000068C0F342341DF8045022FA05F00890FE
:101F400036B1012E06D0022E06D0032E0AD106E0AD
:101F50000A9108E00A9206E009980A9003E00898BE
:101F60000A9000E000BF00BF0A980CB0BDE8F08FF7
:101F70000000000000000000010203040607080939
:101F8000083802400024F40040787D01074A02EB43
:101F90009011D1F8001800F01F0301229A4011435C
:101FA000024B03EB9012C2F8001870470030024059
:101FB00013B52122DDE90001FFF79CFA1CBD0000EA
:101FC0007FB50446FFF794FB00251DE0002618E0CE
:101FD0001148825D114850F825106846FFF744FD0E
:101FE000DDE90001CDE902019DF80D0040B1DDE918
:101FF0000201FFF7DDFFDDE90201C4E900017FBD59
:10200000761C042EE4D36D1C022DDFD3DDE9020122
:10201000C4E9000100BFF2E7BC2C0008B42C0008A2
:1020200003B583B0002001900290062001AB40224E
:102030000090DDE90301FFF7E9FB9DF8040000F0E3
:10204000010010B1312005B000BD9DF8060000F080
:10205000010008B13220F6E79DF8080000F0010009
:1020600008B13320EFE79DF8040000F0020008B14A
:102070003420E8E79DF8060000F0020008B13520A2
:10208000E1E79DF8080000F0020008B13620DAE729
:102090009DF8040000F0040008B13720D3E79DF854
:1020A000060000F0040008B13820CCE79DF80800D5
:1020B00000F0040008B13920C5E79DF8040000F0E5
:1020C000080008B12A20BEE79DF8060000F00800CD
:1020D00008B13020B7E79DF8080000F0080008B10B
:1020E0002320B0E70020AEE713B50122DDE90001AF
:1020F000FFF700FA1CBD13B580236B22DDE9000158
:10210000FFF71CFB0A20FFF7BEFA01236B22DDE973
:102110000001FFF713FB0A20FFF7B5FA002319228D
:10212000DDE90001FFF70AFB18231B22DDE90001AE
:10213000FFF704FB18231C22DDE90001FFF7FEFA7C
:1021400004231A22DDE90001FFF7F8FA04231D2217
:10215000DDE90001FFF7F2FA00236C22DDE900015E
:10216000FFF7ECFA00231E22DDE90001FFF7E6FA93
:1021700000232322DDE90001FFF7E0FA1CBD000087
:102180007FB50446FFF7B4FA00251DE0002618E0ED
:102190001148825D114850F825106846FFF764FC2D
:1021A000DDE90001CDE902019DF80D0040B1DDE956
:1021B0000201FFF799FFDDE90201C4E900017FBDDB
:1021C000761C022EE4D36D1C022DDFD3DDE9020163
:1021D000C4E9000100BFF2E7C82C0008C02C0008C9
:1021E0007FB50446FFF784FA00251DE0002618E0BD
:1021F0001148825D114850F825106846FFF734FCFD
:10220000DDE90001CDE902019DF80D0040B1DDE9F5
:102210000201FFF770FFDDE90201C4E900017FBDA3
:10222000761C022EE4D36D1C022DDFD3DDE9020102
:10223000C4E9000100BFF2E7CC2C0008C02C000864
:102240002DE9F74F2DED048B8CB004460020019052
:102250000290039004900E2001AB3B220090DDE938
:102260001101FFF7D3FA9DF805009DF8041040EA2C
:10227000012005B29DF807009DF8061040EA0120F4
:1022800006B29DF809009DF8081040EA012007B247
:102290009DF80B009DF80A1040EA01200FFA80FA21
:1022A0009DF80D009DF80C1040EA01200FFA80F80F
:1022B0009DF80F009DF80E1040EA01200FFA80F9FA
:1022C0009DF811009DF8101040EA01200FFA80FBE4
:1022D0002846FEF721F89FED310B53EC102BFDF74C
:1022E000A9FFFEF72AF805903046FEF715F89FED96
:1022F0002B0B53EC102BFDF79DFFFEF71EF80690FD
:102300003846FEF709F89FED250B53EC102BFDF72F
:1023100091FFFEF712F80790AAF1190000EB800078
:10232000400040F6C44190FBF1F000EE100AB8EE18
:10233000C00AF3EE090A30EE200A8DED0B0A404682
:10234000FDF7EAFF9FED170B53EC102BFDF772FF23
:10235000FDF7F3FF08904846FDF7DEFF9FED110BF8
:1023600053EC102BFDF766FFFDF7E7FF0990584689
:10237000FDF7D2FF9FED0B0B53EC102BFDF75AFF2F
:10238000FDF7DBFF0A901C2205A92046FDF72CFF74
:102390000CB0BDEC048BBDE8FE8F0000344C4C9BB0
:1023A0009A99733F08AC1C5A643BAF3F13B50323A3
:1023B0001422DDE9000100F018F81CBD03B583B05C
:1023C000012002AB14220090DDE90301FFF71EFAA1
:1023D0009DF8080000F0030028B903231422DDE96A
:1023E000030100F01BF805B000BD3FB583B01546F2
:1023F0001C4600200290012002AB2A460090DDE935
:102400000301FFF703FA9DF8080020EA04032A46B7
:10241000DDE90301FFF792F907B030BD3FB583B0A6
:1024200015461C4600200290012002AB2A4600906F
:10243000DDE90301FFF7EAF99DF8080040EA04032B
:102440002A46DDE90301FFF779F907B030BD2DE930
:10245000FF4F85B014469846DDE9129A149E02207B
:10246000049000274FF0000B0C2C05D00E2C07D148
:1024700012274FF0100B04E077274FF0300B00E0ED
:1024800000BF00BF47F080030222DDE90501FFF72E
:1024900055F980230422DDE90501FFF7A6FF00239B
:1024A0000122DDE90501FFF749F980230A22DDE970
:1024B0000501FFF7B3FF43460922CDF80090DDE99F
:1024C0000501FFF761FA23460122DDE90501FFF767
:1024D00035F90C2C05D180230D22DDE90501FFF72C
:1024E0009DFF4FF47A7500BF012002AB04220090DB
:1024F000DDE90501FFF78AF9681E85B255B19DF83F
:10250000080000F0010028B99DF8080000EA0B005F
:102510000028E9D080230D22DDE90501FFF765FFE2
:10252000002D54D0012002AB06220090DDE9050108
:10253000FFF76CF99DF8080000F01B00002844D15B
:1025400004909DF80800384000F0010008B1012017
:1025500004900C2C3BD1012002AB0A220090DDE953
:102560000501FFF753F9012003AB0C220090DDE9D0
:102570000501FFF74BF99DF80C0000F007000390F0
:102580009DF80C0040B19DF80800401E9DF80C100D
:1025900001EBC000308003E09DF80800C0003080EF
:1025A0009DF8080008B9012002909DF80800122843
:1025B00001DD122002909DF8080053460922009088
:1025C000DDE90501FFF722F901E0022004908023F4
:1025D0000C22DDE90501FFF721FF00230122DDE9DF
:1025E0000501FFF7ABF8049809B0BDE8F08F13B50B
:1025F000DDE9000100F011F8DDE90001FFF7D6FE8A
:102600000A20FFF740F8DDE90001FFF7D7FE41227D
:10261000DDE9000100F03CF81CBD13B50F230122D9
:10262000DDE90001FFF78AF80A20FFF72CF83D23C7
:102630001122DDE90001FFF781F81E232D22DDE9DB
:102640000001FFF77BF800232C22DDE90001FFF7F2
:1026500075F88D232A22DDE90001FFF76FF83E238C
:102660002B22DDE90001FFF769F840231522DDE99F
:102670000001FFF763F880233322DDE90001FFF753
:10268000B4FE40231522DDE90001FFF757F81CBD19
:1026900037B51446412C37D108231A46DDE900012D
:1026A000FFF74CF83D231122DDE90001FFF746F862
:1026B00086231722DDE90001FFF740F87F23262259
:1026C000DDE90001FFF73AF81E232D22DDE90001C4
:1026D000FFF734F800232C22DDE90001FFF72EF884
:1026E0008D232A22DDE90001FFF728F83E232B2263
:1026F000DDE90001FFF722F80A20FEF7C4FFDDE95B
:102700000001FFF75BFE01E002203EBD0020FCE778
:10271000F7B58AB01546002708231A46DDE90A01F5
:10272000FFF763FE00230D22DDE90A01FFF706F83B
:1027300080230E22DDE90A01FFF757FE93208DF872
:10274000100020208DF8110009A804A9022204AB72
:10275000CDE9002102900C22DDE90A01FFF777FEA6
:10276000064686B9002407E004A8005D285504A8A1
:10277000005D4740601CC4B2042CF5DB04A8005D7A
:10278000B84200D0022680230E22DDE90A01FFF7BD
:1027900045FE30460DB0F0BD7FB50446FEF7A8FFFC
:1027A00000251DE0002618E01148825D114850F810
:1027B00025106846FFF758F9DDE90001CDE902016F
:1027C0009DF80D0040B1DDE90201FFF710FFDDE9E2
:1027D0000201C4E900017FBD761C042EE4D36D1C08
:1027E000022DDFD3DDE90201C4E9000100BFF2E7F9
:1027F000D82C0008D02C00087FB58AB015461C469E
:1028000008231A46DDE90A01FFF7EFFD07230D2231
:10281000DDE90A01FEF792FF03231422DDE90A0134
:10282000FFF7FCFD8DF8105009A804A9012204ABA4
:10283000CDE9002102900C22DDE90A01FFF707FE35
:10284000064656B9BDF82400102806D19DF81000A0
:1028500020709DF81100607000E0022630460EB036
:1028600070BD00007FB50446FEF742FF00251DE065
:10287000002618E01148825D114850F8251068467E
:10288000FFF7F2F8DDE90001CDE902019DF80D0046
:1028900040B1DDE9020100F02AF8DDE90201C4E9F6
:1028A00000017FBD761C042EE4D36D1C022DDFD306
:1028B000DDE90201C4E9000100BFF2E7E42C0008F1
:1028C000DC2C000803B583B000200290012002AB8D
:1028D00000220090DDE90301FEF798FF9DF8080053
:1028E00000F0010002909DF8080005B000BD13B58E
:1028F00000230222DDE90001FEF720FFFF2303226F
:10290000DDE90001FEF71AFF1CBD000010B5012033
:1029100007490870074800680749086014220748FB
:1029200003C8FEF789FB01200549086010BD0000BF
:1029300048000020540000204C000020100000201F
:102940006800002010B5022005490870054800689D
:10295000054908600022054803C8FEF76DFB10BD5D
:1029600048000020580000204C00002010000020EB
:10297000002000213A4A126842F48032384B1A6033
:1029800000BF401C364A126802F4003119B94FF6F4
:10299000FF729042F5D1324A126802F400320AB94D
:1029A00000BFFEE72E4A4032126842F080522C4BA4
:1029B00040331A602B4A126842F44042294B1A6095
:1029C000274A08321268264B08331A601A461268E2
:1029D00042F400421A601A46126842F4A0521A6089
:1029E000214A1B1F1A601A1F126842F080721B1FB7
:1029F0001A6000BF1A4A126802F00072002AF9D069
:102A0000184A126842F48032164B1A6000BF154A09
:102A1000526802F48032002AF9D0124A126842F455
:102A20000032104B1A6000BF0E4A526802F40032A6
:102A3000002AF9D00A4A0832126822F00302084B31
:102A400008331A601A46126842F002021A6000BF88
:102A5000034A0832126802F00802002AF8D07047D0
:102A600000380240007000401964400910B5FFF7BB
:102A70007FFF10BDCA43026170470246D06800EA7A
:102A800001031069084010B10BB10120704700200C
:102A9000FCE7000010B510210148FEF73FFB10BD18
:102AA000001402407FB558480078082812D2DFE8A9
:102AB00000F0041231506F7D8B9F052003460246C3
:102AC0000090524803C8FEF77BF951A2524803C850
:102AD000FEF7FEF995E000206423024600904B4883
:102AE00003C8FEF76DF94D4800683C2190FBF1F2F8
:102AF00001FB12044948006890FBF1F523462A4681
:102B000047A101A8FDF7A6FD01AA434803C8FEF7A7
:102B1000DFF976E0642000231A4600903B4803C8A2
:102B2000FEF74EF93D4800683C2190FBF1F201FBB5
:102B300012043A48006890FBF1F523462A4638A172
:102B400001A8FDF787FD01AA334803C8FEF7C0F9C5
:102B500057E064200023024600902C4803C8FEF78B
:102B60002FF92E4800683C2190FBF1F201FB120482
:102B70002A48006890FBF1F523462A4628A101A8BF
:102B8000FDF768FD01AA244803C8FEF7A1F938E063
:102B9000002064231A4600901C4803C8FEF710F971
:102BA00022A21D4803C8FEF793F92AE0322003460B
:102BB00000220090154803C8FEF702F91DA216482E
:102BC00003C8FEF785F91CE0642003460246009026
:102BD0000E4803C8FEF7F4F8184819A1026801A8C6
:102BE000FDF738FD01AA0C4803C8FEF771F908E0AB
:102BF0006420034600220090044803C8FEF7E0F872
:102C000000BF00BF7FBD0000480000200000002082
:102C10002D2D2D2D00000000080000204C0000206C
:102C2000253032642E253032640000005041555367
:102C300000000000536E6F6F000000006000002075
:102C4000646F6E452530326400000000005400407F
:102C500000580040C0C2C4C6E0E2E4E6F80130001B
:102C6000D802780230036803E8033800F8037803D9
:102C7000B803E003C801F002C8038803E801B00309
:102C800020007000D003C001A802A002E002980357
:102C9000380380022003C003F00110035003B00189
:102CA0007003480200020000005400400058004039
:102CB000C8CACCCE0054004000580040E8EAECEE10
:102CC000005400400058004046B8888AD0D2000026
:102CD00000540040005800405052545600540040E8
:102CE0000058004030323436005400400058004054
:102CF0001A2B3C4D5E6F7A8B9CADBECF1C2D00080D
:102D00000000002078000000B6060008942D00089E
:102D10007800002000040000C60600080000000043
:102D200000000000000000000000000000000000A3
:102D30000000000000000000000000000000000093
:102D40000000000000000000000000000000000083
:102D50000000000000000000000000000000000073
:102D60000000000000000000000000000000000063
:102D7000DC0500002C0100008403000000000000BE
:102D80000000000001000000000000000000000042
:042D9000000000003F
:04000005080001AD41
:00000001FF
